{
  "contractName": "WorkLobStaking",
  "abi": [
    {
      "inputs": [
        {
          "internalType": "contract IWorkLobERC20",
          "name": "_token",
          "type": "address"
        }
      ],
      "stateMutability": "nonpayable",
      "type": "constructor"
    },
    {
      "anonymous": false,
      "inputs": [
        {
          "indexed": true,
          "internalType": "address",
          "name": "previousOwner",
          "type": "address"
        },
        {
          "indexed": true,
          "internalType": "address",
          "name": "newOwner",
          "type": "address"
        }
      ],
      "name": "OwnershipTransferred",
      "type": "event"
    },
    {
      "anonymous": false,
      "inputs": [
        {
          "indexed": false,
          "internalType": "uint256",
          "name": "rewardAmount",
          "type": "uint256"
        },
        {
          "indexed": false,
          "internalType": "uint256",
          "name": "duration",
          "type": "uint256"
        }
      ],
      "name": "RewardAdded",
      "type": "event"
    },
    {
      "anonymous": false,
      "inputs": [
        {
          "indexed": true,
          "internalType": "address",
          "name": "user",
          "type": "address"
        },
        {
          "indexed": false,
          "internalType": "uint256",
          "name": "reward",
          "type": "uint256"
        }
      ],
      "name": "RewardPaid",
      "type": "event"
    },
    {
      "anonymous": false,
      "inputs": [
        {
          "indexed": true,
          "internalType": "address",
          "name": "user",
          "type": "address"
        },
        {
          "indexed": false,
          "internalType": "uint256",
          "name": "amount",
          "type": "uint256"
        }
      ],
      "name": "Staked",
      "type": "event"
    },
    {
      "anonymous": false,
      "inputs": [
        {
          "indexed": true,
          "internalType": "address",
          "name": "user",
          "type": "address"
        },
        {
          "indexed": false,
          "internalType": "uint256",
          "name": "amount",
          "type": "uint256"
        }
      ],
      "name": "Withdrawn",
      "type": "event"
    },
    {
      "inputs": [
        {
          "internalType": "address",
          "name": "",
          "type": "address"
        }
      ],
      "name": "balances",
      "outputs": [
        {
          "internalType": "uint256",
          "name": "",
          "type": "uint256"
        }
      ],
      "stateMutability": "view",
      "type": "function",
      "constant": true
    },
    {
      "inputs": [],
      "name": "lastUpdateTime",
      "outputs": [
        {
          "internalType": "uint256",
          "name": "",
          "type": "uint256"
        }
      ],
      "stateMutability": "view",
      "type": "function",
      "constant": true
    },
    {
      "inputs": [],
      "name": "owner",
      "outputs": [
        {
          "internalType": "address",
          "name": "",
          "type": "address"
        }
      ],
      "stateMutability": "view",
      "type": "function",
      "constant": true
    },
    {
      "inputs": [],
      "name": "periodFinish",
      "outputs": [
        {
          "internalType": "uint256",
          "name": "",
          "type": "uint256"
        }
      ],
      "stateMutability": "view",
      "type": "function",
      "constant": true
    },
    {
      "inputs": [],
      "name": "rewardPerTokenStored",
      "outputs": [
        {
          "internalType": "uint256",
          "name": "",
          "type": "uint256"
        }
      ],
      "stateMutability": "view",
      "type": "function",
      "constant": true
    },
    {
      "inputs": [],
      "name": "rewardRate",
      "outputs": [
        {
          "internalType": "uint256",
          "name": "",
          "type": "uint256"
        }
      ],
      "stateMutability": "view",
      "type": "function",
      "constant": true
    },
    {
      "inputs": [
        {
          "internalType": "address",
          "name": "",
          "type": "address"
        }
      ],
      "name": "rewards",
      "outputs": [
        {
          "internalType": "uint256",
          "name": "",
          "type": "uint256"
        }
      ],
      "stateMutability": "view",
      "type": "function",
      "constant": true
    },
    {
      "inputs": [],
      "name": "token",
      "outputs": [
        {
          "internalType": "contract IWorkLobERC20",
          "name": "",
          "type": "address"
        }
      ],
      "stateMutability": "view",
      "type": "function",
      "constant": true
    },
    {
      "inputs": [],
      "name": "totalStaked",
      "outputs": [
        {
          "internalType": "uint256",
          "name": "",
          "type": "uint256"
        }
      ],
      "stateMutability": "view",
      "type": "function",
      "constant": true
    },
    {
      "inputs": [
        {
          "internalType": "address",
          "name": "newOwner",
          "type": "address"
        }
      ],
      "name": "transferOwnership",
      "outputs": [],
      "stateMutability": "nonpayable",
      "type": "function"
    },
    {
      "inputs": [
        {
          "internalType": "address",
          "name": "",
          "type": "address"
        }
      ],
      "name": "userRewardPerTokenPaid",
      "outputs": [
        {
          "internalType": "uint256",
          "name": "",
          "type": "uint256"
        }
      ],
      "stateMutability": "view",
      "type": "function",
      "constant": true
    },
    {
      "inputs": [],
      "name": "lastTimeRewardApplicable",
      "outputs": [
        {
          "internalType": "uint256",
          "name": "",
          "type": "uint256"
        }
      ],
      "stateMutability": "view",
      "type": "function",
      "constant": true
    },
    {
      "inputs": [],
      "name": "rewardPerToken",
      "outputs": [
        {
          "internalType": "uint256",
          "name": "",
          "type": "uint256"
        }
      ],
      "stateMutability": "view",
      "type": "function",
      "constant": true
    },
    {
      "inputs": [
        {
          "internalType": "address",
          "name": "account",
          "type": "address"
        }
      ],
      "name": "earned",
      "outputs": [
        {
          "internalType": "uint256",
          "name": "",
          "type": "uint256"
        }
      ],
      "stateMutability": "view",
      "type": "function",
      "constant": true
    },
    {
      "inputs": [
        {
          "internalType": "uint256",
          "name": "amount",
          "type": "uint256"
        }
      ],
      "name": "stake",
      "outputs": [],
      "stateMutability": "nonpayable",
      "type": "function"
    },
    {
      "inputs": [
        {
          "internalType": "uint256",
          "name": "amount",
          "type": "uint256"
        }
      ],
      "name": "withdraw",
      "outputs": [],
      "stateMutability": "nonpayable",
      "type": "function"
    },
    {
      "inputs": [],
      "name": "getReward",
      "outputs": [],
      "stateMutability": "nonpayable",
      "type": "function"
    },
    {
      "inputs": [],
      "name": "exit",
      "outputs": [],
      "stateMutability": "nonpayable",
      "type": "function"
    },
    {
      "inputs": [
        {
          "internalType": "uint256",
          "name": "rewardAmount",
          "type": "uint256"
        },
        {
          "internalType": "uint256",
          "name": "duration",
          "type": "uint256"
        }
      ],
      "name": "notifyRewardAmount",
      "outputs": [],
      "stateMutability": "nonpayable",
      "type": "function"
    },
    {
      "inputs": [],
      "name": "getAllStakers",
      "outputs": [
        {
          "internalType": "address[]",
          "name": "",
          "type": "address[]"
        },
        {
          "internalType": "uint256[]",
          "name": "",
          "type": "uint256[]"
        },
        {
          "internalType": "uint256[]",
          "name": "",
          "type": "uint256[]"
        },
        {
          "internalType": "uint256[]",
          "name": "",
          "type": "uint256[]"
        },
        {
          "internalType": "bool[]",
          "name": "",
          "type": "bool[]"
        }
      ],
      "stateMutability": "view",
      "type": "function",
      "constant": true
    },
    {
      "inputs": [
        {
          "internalType": "address",
          "name": "account",
          "type": "address"
        }
      ],
      "name": "getStakerDetails",
      "outputs": [
        {
          "internalType": "address",
          "name": "",
          "type": "address"
        },
        {
          "internalType": "uint256",
          "name": "",
          "type": "uint256"
        },
        {
          "internalType": "uint256",
          "name": "",
          "type": "uint256"
        },
        {
          "internalType": "uint256",
          "name": "",
          "type": "uint256"
        },
        {
          "internalType": "bool",
          "name": "",
          "type": "bool"
        }
      ],
      "stateMutability": "view",
      "type": "function",
      "constant": true
    }
  ],
  "bytecode": "0x60a060405234801561000f575f80fd5b506040516114b43803806114b483398101604081905261002e91610050565b5f80546001600160a01b031916331790556001600160a01b031660805261007d565b5f60208284031215610060575f80fd5b81516001600160a01b0381168114610076575f80fd5b9392505050565b6080516114036100b15f395f81816102e2015281816104a60152818161071b015281816108ab0152610e5b01526114035ff3fe608060405234801561000f575f80fd5b5060043610610131575f3560e01c80638b876347116100b4578063cd3daf9d11610079578063cd3daf9d146102a8578063df136d65146102b0578063e9fad8ee146102b9578063ebe2b12b146102c1578063f2fde38b146102ca578063fc0c546a146102dd575f80fd5b80638b876347146101fc5780638da5cb5b1461021b5780638fb80c7314610245578063a694fc3a1461028c578063c8f33c911461029f575f80fd5b80633d18b912116100fa5780633d18b912146101c15780636e4f88c8146101c95780637b0a47ee146101e257806380faa57d146101eb578063817b1cd2146101f3575f80fd5b80628cc262146101355780630700037d1461015b578063246132f91461017a57806327e235e31461018f5780632e1a7d4d146101ae575b5f80fd5b61014861014336600461117c565b610304565b6040519081526020015b60405180910390f35b61014861016936600461117c565b60086020525f908152604090205481565b61018d6101883660046111a9565b61037f565b005b61014861019d36600461117c565b60066020525f908152604090205481565b61018d6101bc3660046111c9565b6105c9565b61018d610805565b6101d1610990565b604051610152959493929190611249565b61014860015481565b610148610d0d565b61014860055481565b61014861020a36600461117c565b60076020525f908152604090205481565b5f5461022d906001600160a01b031681565b6040516001600160a01b039091168152602001610152565b61025861025336600461117c565b610d25565b604080516001600160a01b03909616865260208601949094529284019190915260608301521515608082015260a001610152565b61018d61029a3660046111c9565b610d9f565b61014860035481565b610148610fe8565b61014860045481565b61018d611047565b61014860025481565b61018d6102d836600461117c565b611069565b61022d7f000000000000000000000000000000000000000000000000000000000000000081565b6001600160a01b0381165f908152600860209081526040808320546007909252822054670de0b6b3a764000090610339610fe8565b61034391906112fb565b6001600160a01b0385165f90815260066020526040902054610365919061130e565b61036f9190611325565b6103799190611344565b92915050565b5f546001600160a01b031633146103dd5760405162461bcd60e51b815260206004820181905260248201527f4f776e61626c653a2063616c6c6572206973206e6f7420746865206f776e657260448201526064015b60405180910390fd5b5f6103e6610fe8565b6004556103f1610d0d565b6003556001600160a01b038116156104375761040c81610304565b6001600160a01b0382165f908152600860209081526040808320939093556004546007909152919020555b60025442106104525761044a8284611325565b60015561048f565b5f4260025461046191906112fb565b90505f60015482610472919061130e565b90508361047f8287611344565b6104899190611325565b60015550505b6040516370a0823160e01b81523060048201525f907f00000000000000000000000000000000000000000000000000000000000000006001600160a01b0316906370a0823190602401602060405180830381865afa1580156104f3573d5f803e3d5ffd5b505050506040513d601f19601f820116820180604052508101906105179190611357565b90508083600154610528919061130e565b11156105765760405162461bcd60e51b815260206004820152601c60248201527f4e6f7420656e6f75676820746f6b656e7320666f72207265776172640000000060448201526064016103d4565b426003819055610587908490611344565b60025560408051858152602081018590527f6c07ee05dcf262f13abf9d87b846ee789d2f90fe991d495acd7d7fc109ee1f55910160405180910390a150505050565b336105d2610fe8565b6004556105dd610d0d565b6003556001600160a01b03811615610623576105f881610304565b6001600160a01b0382165f908152600860209081526040808320939093556004546007909152919020555b5f82116106665760405162461bcd60e51b8152602060048201526011602482015270043616e6e6f74207769746864726177203607c1b60448201526064016103d4565b335f908152600660205260409020548211156106c45760405162461bcd60e51b815260206004820152601b60248201527f496e73756666696369656e74207374616b65642062616c616e6365000000000060448201526064016103d4565b335f90815260066020526040812080548492906106e29084906112fb565b925050819055508160055f8282546106fa91906112fb565b909155505060405163a9059cbb60e01b8152336004820152602481018390527f00000000000000000000000000000000000000000000000000000000000000006001600160a01b03169063a9059cbb906044016020604051808303815f875af1158015610769573d5f803e3d5ffd5b505050506040513d601f19601f8201168201806040525081019061078d919061136e565b6107cb5760405162461bcd60e51b815260206004820152600f60248201526e151c985b9cd9995c8819985a5b1959608a1b60448201526064016103d4565b60405182815233907f7084f5476618d8e60b11ef0d7d3f06914655adb8793e28ff7f018d4c76d505d5906020015b60405180910390a25050565b3361080e610fe8565b600455610819610d0d565b6003556001600160a01b0381161561085f5761083481610304565b6001600160a01b0382165f908152600860209081526040808320939093556004546007909152919020555b335f90815260086020526040902054801561098c57335f81815260086020526040808220919091555163a9059cbb60e01b81526004810191909152602481018290526001600160a01b037f0000000000000000000000000000000000000000000000000000000000000000169063a9059cbb906044016020604051808303815f875af11580156108f1573d5f803e3d5ffd5b505050506040513d601f19601f82011682018060405250810190610915919061136e565b61095a5760405162461bcd60e51b815260206004820152601660248201527514995dd85c99081d1c985b9cd9995c8819985a5b195960521b60448201526064016103d4565b60405181815233907fe2403640ba68fed3a2f88b7557551d1993f84b99bb10ff833f0cf8db0c5e0486906020016107f9565b5050565b60608060608060605f805b600954811015610a06575f60065f600984815481106109bc576109bc61138d565b5f9182526020808320909101546001600160a01b0316835282019290925260400190205411156109f457816109f0816113a1565b9250505b806109fe816113a1565b91505061099b565b505f8167ffffffffffffffff811115610a2157610a216113b9565b604051908082528060200260200182016040528015610a4a578160200160208202803683370190505b5090505f8267ffffffffffffffff811115610a6757610a676113b9565b604051908082528060200260200182016040528015610a90578160200160208202803683370190505b5090505f8367ffffffffffffffff811115610aad57610aad6113b9565b604051908082528060200260200182016040528015610ad6578160200160208202803683370190505b5090505f8467ffffffffffffffff811115610af357610af36113b9565b604051908082528060200260200182016040528015610b1c578160200160208202803683370190505b5090505f8567ffffffffffffffff811115610b3957610b396113b9565b604051908082528060200260200182016040528015610b62578160200160208202803683370190505b5090505f805b600954811015610cfa575f60098281548110610b8657610b8661138d565b5f9182526020808320909101546001600160a01b0316808352600690915260409091205490915015610ce75780888481518110610bc557610bc561138d565b60200260200101906001600160a01b031690816001600160a01b03168152505060065f826001600160a01b03166001600160a01b031681526020019081526020015f2054878481518110610c1b57610c1b61138d565b602002602001018181525050610c3081610304565b868481518110610c4257610c4261138d565b6020908102919091018101919091526001600160a01b0382165f90815260079091526040902054610c7390426112fb565b858481518110610c8557610c8561138d565b6020026020010181815250505f60065f836001600160a01b03166001600160a01b031681526020019081526020015f205411848481518110610cc957610cc961138d565b9115156020928302919091019091015282610ce3816113a1565b9350505b5080610cf2816113a1565b915050610b68565b50949b939a509198509650945092505050565b5f6002544210610d1e575060025490565b425b905090565b6001600160a01b0381165f9081526006602052604081205481908190819081908690610d5082610304565b6001600160a01b0389165f90815260076020526040902054610d7290426112fb565b6001600160a01b03999099165f908152600660205260409020549299919890975095509015159350915050565b33610da8610fe8565b600455610db3610d0d565b6003556001600160a01b03811615610df957610dce81610304565b6001600160a01b0382165f908152600860209081526040808320939093556004546007909152919020555b5f8211610e395760405162461bcd60e51b815260206004820152600e60248201526d043616e6e6f74207374616b6520360941b60448201526064016103d4565b6040516323b872dd60e01b8152336004820152306024820152604481018390527f00000000000000000000000000000000000000000000000000000000000000006001600160a01b0316906323b872dd906064016020604051808303815f875af1158015610ea9573d5f803e3d5ffd5b505050506040513d601f19601f82011682018060405250810190610ecd919061136e565b610f0b5760405162461bcd60e51b815260206004820152600f60248201526e151c985b9cd9995c8819985a5b1959608a1b60448201526064016103d4565b335f908152600a602052604090205460ff16610f7b576009805460018181019092557f6e1540171b6c0c960b71a7020d9f60077f6af931a8bbf590da0223dacf75c7af0180546001600160a01b031916339081179091555f908152600a60205260409020805460ff191690911790555b335f9081526006602052604081208054849290610f99908490611344565b925050819055508160055f828254610fb19190611344565b909155505060405182815233907f9e71bc8eea02a63969f509818f2dafb9254532904319f9dbda79b67bd34a5f3d906020016107f9565b5f6005545f03610ff9575060045490565b60055460015460035461100a610d0d565b61101491906112fb565b61101e919061130e565b61103090670de0b6b3a764000061130e565b61103a9190611325565b600454610d209190611344565b335f9081526006602052604090205461105f906105c9565b611067610805565b565b5f546001600160a01b031633146110c25760405162461bcd60e51b815260206004820181905260248201527f4f776e61626c653a2063616c6c6572206973206e6f7420746865206f776e657260448201526064016103d4565b6001600160a01b0381166111235760405162461bcd60e51b815260206004820152602260248201527f4f776e61626c653a206e6577206f776e6572206973207a65726f206164647265604482015261737360f01b60648201526084016103d4565b5f80546040516001600160a01b03808516939216917f8be0079c531659141344cd1fd0a4f28419497f9722a3daafe3b4186f6b6457e091a35f80546001600160a01b0319166001600160a01b0392909216919091179055565b5f6020828403121561118c575f80fd5b81356001600160a01b03811681146111a2575f80fd5b9392505050565b5f80604083850312156111ba575f80fd5b50508035926020909101359150565b5f602082840312156111d9575f80fd5b5035919050565b5f8151808452602080850194508084015f5b8381101561120e578151875295820195908201906001016111f2565b509495945050505050565b5f8151808452602080850194508084015f5b8381101561120e57815115158752958201959082019060010161122b565b60a080825286519082018190525f9060209060c0840190828a01845b8281101561128a5781516001600160a01b031684529284019290840190600101611265565b5050508381038285015261129e81896111e0565b91505082810360408401526112b381876111e0565b905082810360608401526112c781866111e0565b905082810360808401526112db8185611219565b98975050505050505050565b634e487b7160e01b5f52601160045260245ffd5b81810381811115610379576103796112e7565b8082028115828204841417610379576103796112e7565b5f8261133f57634e487b7160e01b5f52601260045260245ffd5b500490565b80820180821115610379576103796112e7565b5f60208284031215611367575f80fd5b5051919050565b5f6020828403121561137e575f80fd5b815180151581146111a2575f80fd5b634e487b7160e01b5f52603260045260245ffd5b5f600182016113b2576113b26112e7565b5060010190565b634e487b7160e01b5f52604160045260245ffdfea264697066735822122042829338df05796cd7eb70c7cffe130c35197d6f0e2776b7b083c64973334fd764736f6c63430008140033",
  "immutableReferences": {
    "959": [
      {
        "length": 32,
        "start": 738
      },
      {
        "length": 32,
        "start": 1190
      },
      {
        "length": 32,
        "start": 1819
      },
      {
        "length": 32,
        "start": 2219
      },
      {
        "length": 32,
        "start": 3675
      }
    ]
  },
  "source": "// SPDX-License-Identifier: MIT\r\npragma solidity ^0.8.0;\r\n\r\ninterface IWorkLobERC20 {\r\n    function totalSupply() external view returns (uint256);\r\n    function balanceOf(address account) external view returns (uint256);\r\n    function transfer(address recipient, uint256 amount) external returns (bool);\r\n    function allowance(address owner, address spender) external view returns (uint256);\r\n    function approve(address spender, uint256 amount) external returns (bool);\r\n    function transferFrom(address sender, address recipient, uint256 amount) external returns (bool);\r\n}\r\n\r\ncontract Ownable {\r\n    address public owner;\r\n    event OwnershipTransferred(address indexed previousOwner, address indexed newOwner);\r\n    \r\n    constructor() {\r\n        owner = msg.sender;\r\n    }\r\n    \r\n    modifier onlyOwner() {\r\n        require(msg.sender == owner, \"Ownable: caller is not the owner\");\r\n        _;\r\n    }\r\n    \r\n    function transferOwnership(address newOwner) public onlyOwner {\r\n        require(newOwner != address(0), \"Ownable: new owner is zero address\");\r\n        emit OwnershipTransferred(owner, newOwner);\r\n        owner = newOwner;\r\n    }\r\n}\r\n\r\ncontract WorkLobStaking is Ownable {\r\n    IWorkLobERC20 public immutable token;\r\n    uint256 public rewardRate;\r\n    uint256 public periodFinish;\r\n    uint256 public lastUpdateTime;\r\n    uint256 public rewardPerTokenStored;\r\n    uint256 public totalStaked;\r\n    \r\n    mapping(address => uint256) public balances;\r\n    mapping(address => uint256) public userRewardPerTokenPaid;\r\n    mapping(address => uint256) public rewards;\r\n    \r\n    address[] private stakers;\r\n    mapping(address => bool) private hasStaked;\r\n    \r\n    event Staked(address indexed user, uint256 amount);\r\n    event Withdrawn(address indexed user, uint256 amount);\r\n    event RewardPaid(address indexed user, uint256 reward);\r\n    event RewardAdded(uint256 rewardAmount, uint256 duration);\r\n    \r\n    modifier updateReward(address account) {\r\n        rewardPerTokenStored = rewardPerToken();\r\n        lastUpdateTime = lastTimeRewardApplicable();\r\n        if (account != address(0)) {\r\n            rewards[account] = earned(account);\r\n            userRewardPerTokenPaid[account] = rewardPerTokenStored;\r\n        }\r\n        _;\r\n    }\r\n    \r\n    constructor(IWorkLobERC20 _token) {\r\n        token = _token;\r\n    }\r\n    \r\n    function lastTimeRewardApplicable() public view returns (uint256) {\r\n        return block.timestamp < periodFinish ? block.timestamp : periodFinish;\r\n    }\r\n    \r\n    function rewardPerToken() public view returns (uint256) {\r\n        if (totalStaked == 0) return rewardPerTokenStored;\r\n        return rewardPerTokenStored + ((lastTimeRewardApplicable() - lastUpdateTime) * rewardRate * 1e18 / totalStaked);\r\n    }\r\n    \r\n    function earned(address account) public view returns (uint256) {\r\n        return (balances[account] * (rewardPerToken() - userRewardPerTokenPaid[account]) / 1e18) + rewards[account];\r\n    }\r\n    \r\n    function stake(uint256 amount) external updateReward(msg.sender) {\r\n        require(amount > 0, \"Cannot stake 0\");\r\n        require(token.transferFrom(msg.sender, address(this), amount), \"Transfer failed\");\r\n        \r\n        if (!hasStaked[msg.sender]) {\r\n            stakers.push(msg.sender);\r\n            hasStaked[msg.sender] = true;\r\n        }\r\n        \r\n        balances[msg.sender] += amount;\r\n        totalStaked += amount;\r\n        emit Staked(msg.sender, amount);\r\n    }\r\n    \r\n    function withdraw(uint256 amount) public updateReward(msg.sender) {\r\n        require(amount > 0, \"Cannot withdraw 0\");\r\n        require(balances[msg.sender] >= amount, \"Insufficient staked balance\");\r\n        \r\n        balances[msg.sender] -= amount;\r\n        totalStaked -= amount;\r\n        require(token.transfer(msg.sender, amount), \"Transfer failed\");\r\n        emit Withdrawn(msg.sender, amount);\r\n    }\r\n    \r\n    function getReward() public updateReward(msg.sender) {\r\n        uint256 reward = rewards[msg.sender];\r\n        if (reward > 0) {\r\n            rewards[msg.sender] = 0;\r\n            require(token.transfer(msg.sender, reward), \"Reward transfer failed\");\r\n            emit RewardPaid(msg.sender, reward);\r\n        }\r\n    }\r\n    \r\n    function exit() external {\r\n        withdraw(balances[msg.sender]);\r\n        getReward();\r\n    }\r\n    \r\n    function notifyRewardAmount(uint256 rewardAmount, uint256 duration) external onlyOwner updateReward(address(0)) {\r\n        if (block.timestamp >= periodFinish) {\r\n            rewardRate = rewardAmount / duration;\r\n        } else {\r\n            uint256 remaining = periodFinish - block.timestamp;\r\n            uint256 leftover = remaining * rewardRate;\r\n            rewardRate = (rewardAmount + leftover) / duration;\r\n        }\r\n        \r\n        uint256 availableBalance = token.balanceOf(address(this));\r\n        require(rewardRate * duration <= availableBalance, \"Not enough tokens for reward\");\r\n        \r\n        lastUpdateTime = block.timestamp;\r\n        periodFinish = block.timestamp + duration;\r\n        emit RewardAdded(rewardAmount, duration);\r\n    }\r\n\r\n    function getAllStakers() public view returns (address[] memory, uint256[] memory, uint256[] memory, uint256[] memory, bool[] memory) {\r\n    uint256 stakerCount = 0;\r\n\r\n    for (uint256 i = 0; i < stakers.length; i++) {\r\n        if (balances[stakers[i]] > 0) {\r\n            stakerCount++;\r\n        }\r\n    }\r\n\r\n    address[] memory stakerAddresses = new address[](stakerCount);\r\n    uint256[] memory stakedAmounts = new uint256[](stakerCount);\r\n    uint256[] memory rewardsEarned = new uint256[](stakerCount);\r\n    uint256[] memory durations = new uint256[](stakerCount);\r\n    bool[] memory statuses = new bool[](stakerCount);\r\n\r\n    uint256 index = 0;\r\n    for (uint256 i = 0; i < stakers.length; i++) {\r\n        address staker = stakers[i];\r\n        if (balances[staker] > 0) {\r\n            stakerAddresses[index] = staker;\r\n            stakedAmounts[index] = balances[staker];\r\n            rewardsEarned[index] = earned(staker);\r\n            durations[index] = block.timestamp - userRewardPerTokenPaid[staker]; // Ensure this doesn't result in underflow\r\n            statuses[index] = balances[staker] > 0;\r\n            index++;\r\n        }\r\n    }\r\n\r\n    return (stakerAddresses, stakedAmounts, rewardsEarned, durations, statuses);\r\n}\r\n\r\n    \r\n    function getStakerDetails(address account) public view returns (address, uint256, uint256, uint256, bool) {\r\n        return (\r\n            account,\r\n            balances[account],\r\n            earned(account),\r\n            block.timestamp - userRewardPerTokenPaid[account],\r\n            balances[account] > 0\r\n        );\r\n    }\r\n}\r\n",
  "sourcePath": "C:\\Users\\John PC\\Desktop\\startups\\worklob\\smart-contract\\contracts\\WorkLobStaking.sol",
  "compiler": {
    "name": "solc",
    "version": "0.8.20+commit.a1b79de6.Emscripten.clang"
  },
  "schemaVersion": "3.4.16",
  "updatedAt": "2025-02-23T01:17:09.585Z",
  "networkType": "ethereum",
  "devdoc": {
    "kind": "dev",
    "methods": {},
    "version": 1
  },
  "userdoc": {
    "kind": "user",
    "methods": {},
    "version": 1
  }
}