{
  "contractName": "WorkLOB",
  "abi": [
    {
      "inputs": [
        {
          "internalType": "address",
          "name": "_LOBToken",
          "type": "address"
        }
      ],
      "stateMutability": "nonpayable",
      "type": "constructor"
    },
    {
      "inputs": [],
      "name": "LOBToken",
      "outputs": [
        {
          "internalType": "address",
          "name": "",
          "type": "address"
        }
      ],
      "stateMutability": "view",
      "type": "function",
      "constant": true
    },
    {
      "inputs": [
        {
          "internalType": "string",
          "name": "",
          "type": "string"
        }
      ],
      "name": "jobs",
      "outputs": [
        {
          "internalType": "string",
          "name": "jobId",
          "type": "string"
        },
        {
          "internalType": "string",
          "name": "customerId",
          "type": "string"
        },
        {
          "internalType": "string",
          "name": "talentId",
          "type": "string"
        },
        {
          "internalType": "address",
          "name": "customerWallet",
          "type": "address"
        },
        {
          "internalType": "address",
          "name": "talentWallet",
          "type": "address"
        },
        {
          "internalType": "uint256",
          "name": "amount",
          "type": "uint256"
        },
        {
          "internalType": "uint256",
          "name": "status",
          "type": "uint256"
        },
        {
          "internalType": "string",
          "name": "chatId",
          "type": "string"
        }
      ],
      "stateMutability": "view",
      "type": "function",
      "constant": true
    },
    {
      "inputs": [],
      "name": "owner",
      "outputs": [
        {
          "internalType": "address",
          "name": "",
          "type": "address"
        }
      ],
      "stateMutability": "view",
      "type": "function",
      "constant": true
    },
    {
      "inputs": [],
      "name": "rewardAmount",
      "outputs": [
        {
          "internalType": "uint256",
          "name": "",
          "type": "uint256"
        }
      ],
      "stateMutability": "view",
      "type": "function",
      "constant": true
    },
    {
      "inputs": [
        {
          "internalType": "string",
          "name": "_jobId",
          "type": "string"
        },
        {
          "internalType": "string",
          "name": "_customerId",
          "type": "string"
        },
        {
          "internalType": "string",
          "name": "_talentId",
          "type": "string"
        },
        {
          "internalType": "address",
          "name": "_customerWallet",
          "type": "address"
        },
        {
          "internalType": "uint256",
          "name": "_amount",
          "type": "uint256"
        },
        {
          "internalType": "string",
          "name": "_chatId",
          "type": "string"
        }
      ],
      "name": "deposit",
      "outputs": [],
      "stateMutability": "payable",
      "type": "function",
      "payable": true
    },
    {
      "inputs": [
        {
          "internalType": "string",
          "name": "_jobId",
          "type": "string"
        },
        {
          "internalType": "string",
          "name": "_customerId",
          "type": "string"
        },
        {
          "internalType": "string",
          "name": "_talentId",
          "type": "string"
        },
        {
          "internalType": "address",
          "name": "_talentWallet",
          "type": "address"
        },
        {
          "internalType": "string",
          "name": "_chatId",
          "type": "string"
        }
      ],
      "name": "complete",
      "outputs": [],
      "stateMutability": "nonpayable",
      "type": "function"
    },
    {
      "inputs": [
        {
          "internalType": "string",
          "name": "_jobId",
          "type": "string"
        },
        {
          "internalType": "string",
          "name": "_customerId",
          "type": "string"
        },
        {
          "internalType": "string",
          "name": "_talentId",
          "type": "string"
        },
        {
          "internalType": "address",
          "name": "_customerWallet",
          "type": "address"
        },
        {
          "internalType": "string",
          "name": "_chatId",
          "type": "string"
        }
      ],
      "name": "confirm",
      "outputs": [],
      "stateMutability": "nonpayable",
      "type": "function"
    }
  ],
  "bytecode": "0x60806040526101f4600355348015610015575f80fd5b5060405161103038038061103083398101604081905261003491610062565b600180546001600160a01b039092166001600160a01b0319928316179055600280549091163317905561008f565b5f60208284031215610072575f80fd5b81516001600160a01b0381168114610088575f80fd5b9392505050565b610f948061009c5f395ff3fe60806040526004361061006e575f3560e01c80638da5cb5b1161004c5780638da5cb5b146100e2578063b05e6f5a14610101578063e713231d14610134578063f7b2a7be14610153575f80fd5b806311a47483146100725780633f24e1401461008757806352db0243146100c3575b5f80fd5b610085610080366004610a47565b610176565b005b348015610092575f80fd5b506001546100a6906001600160a01b031681565b6040516001600160a01b0390911681526020015b60405180910390f35b3480156100ce575f80fd5b506100856100dd366004610b05565b61024a565b3480156100ed575f80fd5b506002546100a6906001600160a01b031681565b34801561010c575f80fd5b5061012061011b366004610bbb565b6105ab565b6040516100ba989796959493929190610c42565b34801561013f575f80fd5b5061008561014e366004610b05565b61081f565b34801561015e575f80fd5b5061016860035481565b6040519081526020016100ba565b8134146101bc5760405162461bcd60e51b815260206004820152600f60248201526e082dadeeadce840dad2e6dac2e8c6d608b1b60448201526064015b60405180910390fd5b5f80876040516101cc9190610cc5565b9081526040519081900360200190209050806101e88882610d66565b50600181016101f78782610d66565b50600281016102068682610d66565b506003810180546001600160a01b0319166001600160a01b03861617905560058101839055600781016102398382610d66565b506001600690910155505050505050565b6002546001600160a01b031633146102745760405162461bcd60e51b81526004016101b390610e22565b5f80866040516102849190610cc5565b908152602001604051809103902090508480519060200120816001016040516102ad9190610e63565b60405180910390201480156102df5750835160208501206040516102d5906002840190610e63565b6040518091039020145b61032b5760405162461bcd60e51b815260206004820152601d60248201527f496e76616c696420637573746f6d6572206f722074616c656e7420494400000060448201526064016101b3565b806006015460021461037f5760405162461bcd60e51b815260206004820152601860248201527f4a6f62206973206e6f7420636f6d706c6574656420796574000000000000000060448201526064016101b3565b6003810180546001600160a01b0319166001600160a01b038516179055600781016103aa8382610d66565b506003600682015560048101546001600160a01b0316806104055760405162461bcd60e51b815260206004820152601560248201527415185b195b9d081dd85b1b195d081b9bdd081cd95d605a1b60448201526064016101b3565b5f60648360050154605f6104199190610ee9565b6104239190610f06565b90505f8184600501546104369190610f25565b6040519091506001600160a01b0384169083156108fc029084905f818181858888f1935050505015801561046c573d5f803e3d5ffd5b506002546040516001600160a01b039091169082156108fc029083905f818181858888f193505050501580156104a4573d5f803e3d5ffd5b50600154600385810154905460405163a9059cbb60e01b81526001600160a01b039283166004820152602481019190915291169063a9059cbb906044016020604051808303815f875af11580156104fd573d5f803e3d5ffd5b505050506040513d601f19601f820116820180604052508101906105219190610f38565b5060015460048581015460035460405163a9059cbb60e01b81526001600160a01b039283169381019390935260248301529091169063a9059cbb906044016020604051808303815f875af115801561057b573d5f803e3d5ffd5b505050506040513d601f19601f8201168201806040525081019061059f9190610f38565b50505050505050505050565b80516020818301810180515f825292820191909301209152805481906105d090610ce0565b80601f01602080910402602001604051908101604052809291908181526020018280546105fc90610ce0565b80156106475780601f1061061e57610100808354040283529160200191610647565b820191905f5260205f20905b81548152906001019060200180831161062a57829003601f168201915b50505050509080600101805461065c90610ce0565b80601f016020809104026020016040519081016040528092919081815260200182805461068890610ce0565b80156106d35780601f106106aa576101008083540402835291602001916106d3565b820191905f5260205f20905b8154815290600101906020018083116106b657829003601f168201915b5050505050908060020180546106e890610ce0565b80601f016020809104026020016040519081016040528092919081815260200182805461071490610ce0565b801561075f5780601f106107365761010080835404028352916020019161075f565b820191905f5260205f20905b81548152906001019060200180831161074257829003601f168201915b505050600384015460048501546005860154600687015460078801805497986001600160a01b0395861698949095169650919450929161079e90610ce0565b80601f01602080910402602001604051908101604052809291908181526020018280546107ca90610ce0565b80156108155780601f106107ec57610100808354040283529160200191610815565b820191905f5260205f20905b8154815290600101906020018083116107f857829003601f168201915b5050505050905088565b6002546001600160a01b031633146108495760405162461bcd60e51b81526004016101b390610e22565b5f80866040516108599190610cc5565b908152602001604051809103902090508480519060200120816001016040516108829190610e63565b60405180910390201480156108b45750835160208501206040516108aa906002840190610e63565b6040518091039020145b6109005760405162461bcd60e51b815260206004820152601d60248201527f496e76616c696420637573746f6d6572206f722074616c656e7420494400000060448201526064016101b3565b80600601546001146109545760405162461bcd60e51b815260206004820152601860248201527f4a6f62206973206e6f74206465706f736974656420796574000000000000000060448201526064016101b3565b6004810180546001600160a01b0319166001600160a01b0385161790556007810161097f8382610d66565b5060026006909101555050505050565b634e487b7160e01b5f52604160045260245ffd5b5f82601f8301126109b2575f80fd5b813567ffffffffffffffff808211156109cd576109cd61098f565b604051601f8301601f19908116603f011681019082821181831017156109f5576109f561098f565b81604052838152866020858801011115610a0d575f80fd5b836020870160208301375f602085830101528094505050505092915050565b80356001600160a01b0381168114610a42575f80fd5b919050565b5f805f805f8060c08789031215610a5c575f80fd5b863567ffffffffffffffff80821115610a73575f80fd5b610a7f8a838b016109a3565b97506020890135915080821115610a94575f80fd5b610aa08a838b016109a3565b96506040890135915080821115610ab5575f80fd5b610ac18a838b016109a3565b9550610acf60608a01610a2c565b94506080890135935060a0890135915080821115610aeb575f80fd5b50610af889828a016109a3565b9150509295509295509295565b5f805f805f60a08688031215610b19575f80fd5b853567ffffffffffffffff80821115610b30575f80fd5b610b3c89838a016109a3565b96506020880135915080821115610b51575f80fd5b610b5d89838a016109a3565b95506040880135915080821115610b72575f80fd5b610b7e89838a016109a3565b9450610b8c60608901610a2c565b93506080880135915080821115610ba1575f80fd5b50610bae888289016109a3565b9150509295509295909350565b5f60208284031215610bcb575f80fd5b813567ffffffffffffffff811115610be1575f80fd5b610bed848285016109a3565b949350505050565b5f5b83811015610c0f578181015183820152602001610bf7565b50505f910152565b5f8151808452610c2e816020860160208601610bf5565b601f01601f19169290920160200192915050565b5f610100808352610c558184018c610c17565b90508281036020840152610c69818b610c17565b90508281036040840152610c7d818a610c17565b6001600160a01b0389811660608601528816608085015260a0840187905260c0840186905283810360e08501529050610cb68185610c17565b9b9a5050505050505050505050565b5f8251610cd6818460208701610bf5565b9190910192915050565b600181811c90821680610cf457607f821691505b602082108103610d1257634e487b7160e01b5f52602260045260245ffd5b50919050565b601f821115610d61575f81815260208120601f850160051c81016020861015610d3e5750805b601f850160051c820191505b81811015610d5d57828155600101610d4a565b5050505b505050565b815167ffffffffffffffff811115610d8057610d8061098f565b610d9481610d8e8454610ce0565b84610d18565b602080601f831160018114610dc7575f8415610db05750858301515b5f19600386901b1c1916600185901b178555610d5d565b5f85815260208120601f198616915b82811015610df557888601518255948401946001909101908401610dd6565b5085821015610e1257878501515f19600388901b60f8161c191681555b5050505050600190811b01905550565b60208082526021908201527f4f6e6c79206f776e65722063616e2063616c6c20746869732066756e6374696f6040820152603760f91b606082015260800190565b5f808354610e7081610ce0565b60018281168015610e885760018114610e9d57610ec9565b60ff1984168752821515830287019450610ec9565b875f526020805f205f5b85811015610ec05781548a820152908401908201610ea7565b50505082870194505b50929695505050505050565b634e487b7160e01b5f52601160045260245ffd5b8082028115828204841417610f0057610f00610ed5565b92915050565b5f82610f2057634e487b7160e01b5f52601260045260245ffd5b500490565b81810381811115610f0057610f00610ed5565b5f60208284031215610f48575f80fd5b81518015158114610f57575f80fd5b939250505056fea2646970667358221220c2b66a2d4835aa88cdc7a4a5733071f3688f6e65462dcba87843d27ffe5617aa64736f6c63430008140033",
  "immutableReferences": {},
  "source": "// SPDX-License-Identifier: MIT\r\npragma solidity ^0.8.0;\r\n\r\ncontract WorkLOB {\r\n    struct Job {\r\n        string jobId;\r\n        string customerId;\r\n        string talentId;\r\n        address customerWallet;\r\n        address talentWallet;\r\n        uint256 amount;\r\n        uint256 status; // 0: Not started, 1: Deposited, 2: Completed, 3: Confirmed\r\n        string chatId;  // Updated to string\r\n    }\r\n\r\n    mapping(string => Job) public jobs; // Updated to use string as the key\r\n    address public LOBToken;\r\n    address public owner;\r\n    uint256 public rewardAmount = 500; // Reward amount of LOB tokens\r\n\r\n    constructor(address _LOBToken) {\r\n        LOBToken = _LOBToken;\r\n        owner = msg.sender;\r\n    }\r\n\r\n    modifier onlyOwner() {\r\n        require(msg.sender == owner, \"Only owner can call this function\");\r\n        _;\r\n    }\r\n\r\n    function deposit(\r\n        string memory _jobId,\r\n        string memory _customerId,\r\n        string memory _talentId,\r\n        address _customerWallet,\r\n        uint256 _amount,\r\n        string memory _chatId  // Updated to string\r\n    ) public payable {\r\n        require(msg.value == _amount, \"Amount mismatch\");\r\n        Job storage job = jobs[_jobId];\r\n        job.jobId = _jobId;\r\n        job.customerId = _customerId;\r\n        job.talentId = _talentId;\r\n        job.customerWallet = _customerWallet;\r\n        job.amount = _amount;\r\n        job.chatId = _chatId;  // Updated to string\r\n        job.status = 1;\r\n    }\r\n\r\n    function complete(\r\n        string memory _jobId,\r\n        string memory _customerId,\r\n        string memory _talentId,\r\n        address _talentWallet,\r\n        string memory _chatId  // Updated to string\r\n    ) public onlyOwner {\r\n        Job storage job = jobs[_jobId];\r\n        require(\r\n            keccak256(bytes(job.customerId)) == keccak256(bytes(_customerId)) &&\r\n                keccak256(bytes(job.talentId)) == keccak256(bytes(_talentId)),\r\n            \"Invalid customer or talent ID\"\r\n        );\r\n        require(job.status == 1, \"Job is not deposited yet\");\r\n        job.talentWallet = _talentWallet;\r\n        job.chatId = _chatId;  // Updated to string\r\n        job.status = 2;\r\n    }\r\n\r\n    function confirm(\r\n        string memory _jobId,\r\n        string memory _customerId,\r\n        string memory _talentId,\r\n        address _customerWallet,\r\n        string memory _chatId  // Updated to string\r\n    ) public onlyOwner {\r\n        Job storage job = jobs[_jobId];\r\n        require(\r\n            keccak256(bytes(job.customerId)) == keccak256(bytes(_customerId)) &&\r\n                keccak256(bytes(job.talentId)) == keccak256(bytes(_talentId)),\r\n            \"Invalid customer or talent ID\"\r\n        );\r\n        require(job.status == 2, \"Job is not completed yet\");\r\n\r\n        job.customerWallet = _customerWallet;\r\n        job.chatId = _chatId;  // Updated to string\r\n        job.status = 3;\r\n\r\n        address talentWallet = job.talentWallet;\r\n        require(talentWallet != address(0), \"Talent wallet not set\");\r\n\r\n        uint256 amountToTalent = (job.amount * 95) / 100;\r\n        uint256 remainingAmount = job.amount - amountToTalent;\r\n\r\n        payable(talentWallet).transfer(amountToTalent);\r\n        payable(owner).transfer(remainingAmount);\r\n\r\n        ILOBToken(LOBToken).transfer(job.customerWallet, rewardAmount);\r\n        ILOBToken(LOBToken).transfer(job.talentWallet, rewardAmount);\r\n    }\r\n}\r\n\r\ninterface ILOBToken {\r\n    function transfer(address recipient, uint256 amount) external returns (bool);\r\n}\r\n",
  "sourcePath": "C:\\Users\\John PC\\Desktop\\startups\\worklob\\smart-contract\\contracts\\JobContract.sol",
  "compiler": {
    "name": "solc",
    "version": "0.8.20+commit.a1b79de6.Emscripten.clang"
  },
  "schemaVersion": "3.4.16",
  "updatedAt": "2025-02-25T15:43:07.293Z",
  "networkType": "ethereum",
  "devdoc": {
    "kind": "dev",
    "methods": {},
    "version": 1
  },
  "userdoc": {
    "kind": "user",
    "methods": {},
    "version": 1
  }
}