{
  "contractName": "WorkLobStaking",
  "abi": [
    {
      "inputs": [
        {
          "internalType": "contract IERC20",
          "name": "_token",
          "type": "address"
        }
      ],
      "stateMutability": "nonpayable",
      "type": "constructor"
    },
    {
      "anonymous": false,
      "inputs": [
        {
          "indexed": true,
          "internalType": "address",
          "name": "previousOwner",
          "type": "address"
        },
        {
          "indexed": true,
          "internalType": "address",
          "name": "newOwner",
          "type": "address"
        }
      ],
      "name": "OwnershipTransferred",
      "type": "event"
    },
    {
      "anonymous": false,
      "inputs": [
        {
          "indexed": false,
          "internalType": "uint256",
          "name": "rewardAmount",
          "type": "uint256"
        },
        {
          "indexed": false,
          "internalType": "uint256",
          "name": "duration",
          "type": "uint256"
        }
      ],
      "name": "RewardAdded",
      "type": "event"
    },
    {
      "anonymous": false,
      "inputs": [
        {
          "indexed": true,
          "internalType": "address",
          "name": "user",
          "type": "address"
        },
        {
          "indexed": false,
          "internalType": "uint256",
          "name": "reward",
          "type": "uint256"
        }
      ],
      "name": "RewardPaid",
      "type": "event"
    },
    {
      "anonymous": false,
      "inputs": [
        {
          "indexed": true,
          "internalType": "address",
          "name": "user",
          "type": "address"
        },
        {
          "indexed": false,
          "internalType": "uint256",
          "name": "amount",
          "type": "uint256"
        }
      ],
      "name": "Staked",
      "type": "event"
    },
    {
      "anonymous": false,
      "inputs": [
        {
          "indexed": true,
          "internalType": "address",
          "name": "user",
          "type": "address"
        },
        {
          "indexed": false,
          "internalType": "uint256",
          "name": "amount",
          "type": "uint256"
        }
      ],
      "name": "Withdrawn",
      "type": "event"
    },
    {
      "inputs": [
        {
          "internalType": "address",
          "name": "",
          "type": "address"
        }
      ],
      "name": "balances",
      "outputs": [
        {
          "internalType": "uint256",
          "name": "",
          "type": "uint256"
        }
      ],
      "stateMutability": "view",
      "type": "function"
    },
    {
      "inputs": [],
      "name": "lastUpdateTime",
      "outputs": [
        {
          "internalType": "uint256",
          "name": "",
          "type": "uint256"
        }
      ],
      "stateMutability": "view",
      "type": "function"
    },
    {
      "inputs": [],
      "name": "owner",
      "outputs": [
        {
          "internalType": "address",
          "name": "",
          "type": "address"
        }
      ],
      "stateMutability": "view",
      "type": "function"
    },
    {
      "inputs": [],
      "name": "periodFinish",
      "outputs": [
        {
          "internalType": "uint256",
          "name": "",
          "type": "uint256"
        }
      ],
      "stateMutability": "view",
      "type": "function"
    },
    {
      "inputs": [],
      "name": "rewardPerTokenStored",
      "outputs": [
        {
          "internalType": "uint256",
          "name": "",
          "type": "uint256"
        }
      ],
      "stateMutability": "view",
      "type": "function"
    },
    {
      "inputs": [],
      "name": "rewardRate",
      "outputs": [
        {
          "internalType": "uint256",
          "name": "",
          "type": "uint256"
        }
      ],
      "stateMutability": "view",
      "type": "function"
    },
    {
      "inputs": [
        {
          "internalType": "address",
          "name": "",
          "type": "address"
        }
      ],
      "name": "rewards",
      "outputs": [
        {
          "internalType": "uint256",
          "name": "",
          "type": "uint256"
        }
      ],
      "stateMutability": "view",
      "type": "function"
    },
    {
      "inputs": [],
      "name": "token",
      "outputs": [
        {
          "internalType": "contract IERC20",
          "name": "",
          "type": "address"
        }
      ],
      "stateMutability": "view",
      "type": "function"
    },
    {
      "inputs": [],
      "name": "totalStaked",
      "outputs": [
        {
          "internalType": "uint256",
          "name": "",
          "type": "uint256"
        }
      ],
      "stateMutability": "view",
      "type": "function"
    },
    {
      "inputs": [
        {
          "internalType": "address",
          "name": "newOwner",
          "type": "address"
        }
      ],
      "name": "transferOwnership",
      "outputs": [],
      "stateMutability": "nonpayable",
      "type": "function"
    },
    {
      "inputs": [
        {
          "internalType": "address",
          "name": "",
          "type": "address"
        }
      ],
      "name": "userRewardPerTokenPaid",
      "outputs": [
        {
          "internalType": "uint256",
          "name": "",
          "type": "uint256"
        }
      ],
      "stateMutability": "view",
      "type": "function"
    },
    {
      "inputs": [],
      "name": "lastTimeRewardApplicable",
      "outputs": [
        {
          "internalType": "uint256",
          "name": "",
          "type": "uint256"
        }
      ],
      "stateMutability": "view",
      "type": "function"
    },
    {
      "inputs": [],
      "name": "rewardPerToken",
      "outputs": [
        {
          "internalType": "uint256",
          "name": "",
          "type": "uint256"
        }
      ],
      "stateMutability": "view",
      "type": "function"
    },
    {
      "inputs": [
        {
          "internalType": "address",
          "name": "account",
          "type": "address"
        }
      ],
      "name": "earned",
      "outputs": [
        {
          "internalType": "uint256",
          "name": "",
          "type": "uint256"
        }
      ],
      "stateMutability": "view",
      "type": "function"
    },
    {
      "inputs": [
        {
          "internalType": "uint256",
          "name": "amount",
          "type": "uint256"
        }
      ],
      "name": "stake",
      "outputs": [],
      "stateMutability": "nonpayable",
      "type": "function"
    },
    {
      "inputs": [
        {
          "internalType": "uint256",
          "name": "amount",
          "type": "uint256"
        }
      ],
      "name": "withdraw",
      "outputs": [],
      "stateMutability": "nonpayable",
      "type": "function"
    },
    {
      "inputs": [],
      "name": "getReward",
      "outputs": [],
      "stateMutability": "nonpayable",
      "type": "function"
    },
    {
      "inputs": [],
      "name": "exit",
      "outputs": [],
      "stateMutability": "nonpayable",
      "type": "function"
    },
    {
      "inputs": [
        {
          "internalType": "uint256",
          "name": "rewardAmount",
          "type": "uint256"
        },
        {
          "internalType": "uint256",
          "name": "duration",
          "type": "uint256"
        }
      ],
      "name": "notifyRewardAmount",
      "outputs": [],
      "stateMutability": "nonpayable",
      "type": "function"
    }
  ],
  "bytecode": "0x608060405234801561000f575f80fd5b50604051610d06380380610d0683398101604081905261002e91610060565b5f8054336001600160a01b031991821617909155600180549091166001600160a01b039290921691909117905561008d565b5f60208284031215610070575f80fd5b81516001600160a01b0381168114610086575f80fd5b9392505050565b610c6c8061009a5f395ff3fe608060405234801561000f575f80fd5b506004361061011b575f3560e01c80638b876347116100a9578063df136d651161006e578063df136d651461023a578063e9fad8ee14610243578063ebe2b12b1461024b578063f2fde38b14610254578063fc0c546a14610267575f80fd5b80638b876347146101cd5780638da5cb5b146101ec578063a694fc3a14610216578063c8f33c9114610229578063cd3daf9d14610232575f80fd5b80632e1a7d4d116100ef5780632e1a7d4d146101985780633d18b912146101ab5780637b0a47ee146101b357806380faa57d146101bc578063817b1cd2146101c4575f80fd5b80628cc2621461011f5780630700037d14610145578063246132f91461016457806327e235e314610179575b5f80fd5b61013261012d366004610b2c565b61027a565b6040519081526020015b60405180910390f35b610132610153366004610b2c565b60096020525f908152604090205481565b610177610172366004610b59565b6102f5565b005b610132610187366004610b2c565b60076020525f908152604090205481565b6101776101a6366004610b79565b6104cf565b61017761069d565b61013260025481565b6101326107b9565b61013260065481565b6101326101db366004610b2c565b60086020525f908152604090205481565b5f546101fe906001600160a01b031681565b6040516001600160a01b03909116815260200161013c565b610177610224366004610b79565b6107d1565b61013260045481565b61013261093d565b61013260055481565b61017761099c565b61013260035481565b610177610262366004610b2c565b6109be565b6001546101fe906001600160a01b031681565b6001600160a01b0381165f908152600960209081526040808320546008909252822054670de0b6b3a7640000906102af61093d565b6102b99190610ba4565b6001600160a01b0385165f908152600760205260409020546102db9190610bb7565b6102e59190610bce565b6102ef9190610bed565b92915050565b5f546001600160a01b031633146103535760405162461bcd60e51b815260206004820181905260248201527f4f776e61626c653a2063616c6c6572206973206e6f7420746865206f776e657260448201526064015b60405180910390fd5b61035c5f610ad1565b60035442106103775761036f8183610bce565b6002556103b4565b5f426003546103869190610ba4565b90505f600254826103979190610bb7565b9050826103a48286610bed565b6103ae9190610bce565b60025550505b6001546040516370a0823160e01b81523060048201525f916001600160a01b0316906370a0823190602401602060405180830381865afa1580156103fa573d5f803e3d5ffd5b505050506040513d601f19601f8201168201806040525081019061041e9190610c00565b9050808260025461042f9190610bb7565b111561047d5760405162461bcd60e51b815260206004820152601c60248201527f4e6f7420656e6f75676820746f6b656e7320666f722072657761726400000000604482015260640161034a565b42600481905561048e908390610bed565b60035560408051848152602081018490527f6c07ee05dcf262f13abf9d87b846ee789d2f90fe991d495acd7d7fc109ee1f55910160405180910390a1505050565b5f81116105125760405162461bcd60e51b8152602060048201526011602482015270043616e6e6f74207769746864726177203607c1b604482015260640161034a565b335f908152600760205260409020548111156105705760405162461bcd60e51b815260206004820152601b60248201527f496e73756666696369656e74207374616b65642062616c616e63650000000000604482015260640161034a565b61057933610ad1565b335f9081526007602052604081208054839290610597908490610ba4565b925050819055508060065f8282546105af9190610ba4565b909155505060015460405163a9059cbb60e01b8152336004820152602481018390526001600160a01b039091169063a9059cbb906044016020604051808303815f875af1158015610602573d5f803e3d5ffd5b505050506040513d601f19601f820116820180604052508101906106269190610c17565b6106645760405162461bcd60e51b815260206004820152600f60248201526e151c985b9cd9995c8819985a5b1959608a1b604482015260640161034a565b60405181815233907f7084f5476618d8e60b11ef0d7d3f06914655adb8793e28ff7f018d4c76d505d5906020015b60405180910390a250565b6106a633610ad1565b335f9081526009602052604090205480156107b657335f8181526009602052604080822091909155600154905163a9059cbb60e01b81526004810192909252602482018390526001600160a01b03169063a9059cbb906044016020604051808303815f875af115801561071b573d5f803e3d5ffd5b505050506040513d601f19601f8201168201806040525081019061073f9190610c17565b6107845760405162461bcd60e51b815260206004820152601660248201527514995dd85c99081d1c985b9cd9995c8819985a5b195960521b604482015260640161034a565b60405181815233907fe2403640ba68fed3a2f88b7557551d1993f84b99bb10ff833f0cf8db0c5e048690602001610692565b50565b5f60035442106107ca575060035490565b425b905090565b5f81116108115760405162461bcd60e51b815260206004820152600e60248201526d043616e6e6f74207374616b6520360941b604482015260640161034a565b61081a33610ad1565b6001546040516323b872dd60e01b8152336004820152306024820152604481018390526001600160a01b03909116906323b872dd906064016020604051808303815f875af115801561086e573d5f803e3d5ffd5b505050506040513d601f19601f820116820180604052508101906108929190610c17565b6108d05760405162461bcd60e51b815260206004820152600f60248201526e151c985b9cd9995c8819985a5b1959608a1b604482015260640161034a565b335f90815260076020526040812080548392906108ee908490610bed565b925050819055508060065f8282546109069190610bed565b909155505060405181815233907f9e71bc8eea02a63969f509818f2dafb9254532904319f9dbda79b67bd34a5f3d90602001610692565b5f6006545f0361094e575060055490565b60065460025460045461095f6107b9565b6109699190610ba4565b6109739190610bb7565b61098590670de0b6b3a7640000610bb7565b61098f9190610bce565b6005546107cc9190610bed565b335f908152600760205260409020546109b4906104cf565b6109bc61069d565b565b5f546001600160a01b03163314610a175760405162461bcd60e51b815260206004820181905260248201527f4f776e61626c653a2063616c6c6572206973206e6f7420746865206f776e6572604482015260640161034a565b6001600160a01b038116610a785760405162461bcd60e51b815260206004820152602260248201527f4f776e61626c653a206e6577206f776e6572206973207a65726f206164647265604482015261737360f01b606482015260840161034a565b5f80546040516001600160a01b03808516939216917f8be0079c531659141344cd1fd0a4f28419497f9722a3daafe3b4186f6b6457e091a35f80546001600160a01b0319166001600160a01b0392909216919091179055565b610ad961093d565b600555610ae46107b9565b6004556001600160a01b038116156107b657610aff8161027a565b6001600160a01b0382165f9081526009602090815260408083209390935560055460089091529190205550565b5f60208284031215610b3c575f80fd5b81356001600160a01b0381168114610b52575f80fd5b9392505050565b5f8060408385031215610b6a575f80fd5b50508035926020909101359150565b5f60208284031215610b89575f80fd5b5035919050565b634e487b7160e01b5f52601160045260245ffd5b818103818111156102ef576102ef610b90565b80820281158282048414176102ef576102ef610b90565b5f82610be857634e487b7160e01b5f52601260045260245ffd5b500490565b808201808211156102ef576102ef610b90565b5f60208284031215610c10575f80fd5b5051919050565b5f60208284031215610c27575f80fd5b81518015158114610b52575f80fdfea264697066735822122064d1fd4cd9e8c3fa8585c0cca71459ba57f8ab36e5468e5ae2dfd621600a609c64736f6c63430008140033",
  "immutableReferences": {},
  "source": "// SPDX-License-Identifier: MIT\r\npragma solidity ^0.8.0;\r\n\r\n/**\r\n * @title IERC20\r\n * @dev Simplified ERC20 interface.\r\n */\r\ninterface IERC20 {\r\n    function totalSupply() external view returns (uint256);\r\n    function balanceOf(address account) external view returns (uint256);\r\n    function transfer(address recipient, uint256 amount) external returns (bool);\r\n    function allowance(address owner, address spender) external view returns (uint256);\r\n    function approve(address spender, uint256 amount) external returns (bool);\r\n    function transferFrom(\r\n        address sender,\r\n        address recipient,\r\n        uint256 amount\r\n    ) external returns (bool);\r\n}\r\n\r\n/**\r\n * @title Ownable\r\n * @dev Basic access control mechanism with an owner.\r\n */\r\ncontract Ownable {\r\n    address public owner;\r\n    \r\n    event OwnershipTransferred(address indexed previousOwner, address indexed newOwner);\r\n    \r\n    constructor() {\r\n        owner = msg.sender;\r\n    }\r\n    \r\n    modifier onlyOwner() {\r\n        require(msg.sender == owner, \"Ownable: caller is not the owner\");\r\n        _;\r\n    }\r\n    \r\n    function transferOwnership(address newOwner) public onlyOwner {\r\n        require(newOwner != address(0), \"Ownable: new owner is zero address\");\r\n        emit OwnershipTransferred(owner, newOwner);\r\n        owner = newOwner;\r\n    }\r\n}\r\n\r\n/**\r\n * @title WorkLobStaking\r\n * @dev A staking contract where users can stake tokens to earn rewards.\r\n */\r\ncontract WorkLobStaking is Ownable {\r\n    IERC20 public token;\r\n\r\n    // Reward parameters\r\n    uint256 public rewardRate;           // Reward tokens distributed per second.\r\n    uint256 public periodFinish;         // Timestamp when the current reward period ends.\r\n    uint256 public lastUpdateTime;       // Last timestamp that rewards were updated.\r\n    uint256 public rewardPerTokenStored; // Accumulated reward per staked token (scaled by 1e18).\r\n\r\n    // Total tokens staked by all users.\r\n    uint256 public totalStaked;\r\n\r\n    // User-specific data\r\n    mapping(address => uint256) public balances;               // Amount staked per user.\r\n    mapping(address => uint256) public userRewardPerTokenPaid;   // User's snapshot of rewardPerTokenStored.\r\n    mapping(address => uint256) public rewards;                  // Accumulated (but not yet claimed) rewards.\r\n\r\n    // Events to log key actions\r\n    event Staked(address indexed user, uint256 amount);\r\n    event Withdrawn(address indexed user, uint256 amount);\r\n    event RewardPaid(address indexed user, uint256 reward);\r\n    event RewardAdded(uint256 rewardAmount, uint256 duration);\r\n\r\n    /**\r\n     * @dev Constructor sets the ERC20 token used for staking and rewards.\r\n     * @param _token The ERC20 token address.\r\n     */\r\n    constructor(IERC20 _token) {\r\n        token = _token;\r\n    }\r\n\r\n    /**\r\n     * @dev Returns the last time reward was applicable (current time or period finish, whichever is lower).\r\n     */\r\n    function lastTimeRewardApplicable() public view returns (uint256) {\r\n        return block.timestamp < periodFinish ? block.timestamp : periodFinish;\r\n    }\r\n\r\n    /**\r\n     * @dev Calculates the current reward per token accumulated.\r\n     */\r\n    function rewardPerToken() public view returns (uint256) {\r\n        if (totalStaked == 0) {\r\n            return rewardPerTokenStored;\r\n        }\r\n        return\r\n            rewardPerTokenStored +\r\n            (((lastTimeRewardApplicable() - lastUpdateTime) * rewardRate * 1e18) / totalStaked);\r\n    }\r\n\r\n    /**\r\n     * @dev Returns the total rewards earned by an account.\r\n     * @param account The address of the staker.\r\n     */\r\n    function earned(address account) public view returns (uint256) {\r\n        return ((balances[account] * (rewardPerToken() - userRewardPerTokenPaid[account])) / 1e18) + rewards[account];\r\n    }\r\n\r\n    /**\r\n     * @dev Updates the reward variables for an account.\r\n     * @param account The address to update rewards for.\r\n     */\r\n    function updateReward(address account) internal {\r\n        rewardPerTokenStored = rewardPerToken();\r\n        lastUpdateTime = lastTimeRewardApplicable();\r\n        if (account != address(0)) {\r\n            rewards[account] = earned(account);\r\n            userRewardPerTokenPaid[account] = rewardPerTokenStored;\r\n        }\r\n    }\r\n\r\n    /**\r\n     * @dev Stake a specific amount of tokens.\r\n     * @param amount The number of tokens to stake.\r\n     */\r\n    function stake(uint256 amount) external {\r\n        require(amount > 0, \"Cannot stake 0\");\r\n        updateReward(msg.sender);\r\n        // Transfer tokens from user to this contract.\r\n        require(token.transferFrom(msg.sender, address(this), amount), \"Transfer failed\");\r\n        balances[msg.sender] += amount;\r\n        totalStaked += amount;\r\n        emit Staked(msg.sender, amount);\r\n    }\r\n\r\n    /**\r\n     * @dev Withdraw staked tokens.\r\n     * @param amount The number of tokens to withdraw.\r\n     */\r\n    function withdraw(uint256 amount) public {\r\n        require(amount > 0, \"Cannot withdraw 0\");\r\n        require(balances[msg.sender] >= amount, \"Insufficient staked balance\");\r\n        updateReward(msg.sender);\r\n        balances[msg.sender] -= amount;\r\n        totalStaked -= amount;\r\n        require(token.transfer(msg.sender, amount), \"Transfer failed\");\r\n        emit Withdrawn(msg.sender, amount);\r\n    }\r\n\r\n    /**\r\n     * @dev Claim accumulated reward tokens.\r\n     */\r\n    function getReward() public {\r\n        updateReward(msg.sender);\r\n        uint256 reward = rewards[msg.sender];\r\n        if (reward > 0) {\r\n            rewards[msg.sender] = 0;\r\n            require(token.transfer(msg.sender, reward), \"Reward transfer failed\");\r\n            emit RewardPaid(msg.sender, reward);\r\n        }\r\n    }\r\n\r\n    /**\r\n     * @dev Withdraw staked tokens and claim rewards.\r\n     */\r\n    function exit() external {\r\n        withdraw(balances[msg.sender]);\r\n        getReward();\r\n    }\r\n\r\n    /**\r\n     * @dev Owner-funded reward deposit.\r\n     * The owner (platform treasury) can deposit reward tokens to fund the reward pool.\r\n     * If the current reward period is still active, any leftover rewards are added.\r\n     * @param rewardAmount The total reward tokens to be distributed.\r\n     * @param duration The duration (in seconds) over which to distribute the rewards.\r\n     */\r\n    function notifyRewardAmount(uint256 rewardAmount, uint256 duration) external onlyOwner {\r\n        // Update reward variables before modifying reward parameters.\r\n        updateReward(address(0));\r\n\r\n        // If the previous reward period is still running, add any leftover rewards.\r\n        if (block.timestamp >= periodFinish) {\r\n            rewardRate = rewardAmount / duration;\r\n        } else {\r\n            uint256 remaining = periodFinish - block.timestamp;\r\n            uint256 leftover = remaining * rewardRate;\r\n            rewardRate = (rewardAmount + leftover) / duration;\r\n        }\r\n\r\n        // Ensure the contract has enough tokens to cover the new rewards.\r\n        uint256 availableBalance = token.balanceOf(address(this));\r\n        require(rewardRate * duration <= availableBalance, \"Not enough tokens for reward\");\r\n\r\n        lastUpdateTime = block.timestamp;\r\n        periodFinish = block.timestamp + duration;\r\n        emit RewardAdded(rewardAmount, duration);\r\n    }\r\n}\r\n",
  "sourcePath": "C:\\Users\\John PC\\Desktop\\startups\\worklob\\smart-contract\\contracts\\WorkLobStaking.sol",
  "compiler": {
    "name": "solc",
    "version": "0.8.20+commit.a1b79de6.Emscripten.clang"
  },
  "schemaVersion": "3.4.16",
  "updatedAt": "2025-02-20T04:19:39.687Z",
  "devdoc": {
    "details": "A staking contract where users can stake tokens to earn rewards.",
    "kind": "dev",
    "methods": {
      "constructor": {
        "details": "Constructor sets the ERC20 token used for staking and rewards.",
        "params": {
          "_token": "The ERC20 token address."
        }
      },
      "earned(address)": {
        "details": "Returns the total rewards earned by an account.",
        "params": {
          "account": "The address of the staker."
        }
      },
      "exit()": {
        "details": "Withdraw staked tokens and claim rewards."
      },
      "getReward()": {
        "details": "Claim accumulated reward tokens."
      },
      "lastTimeRewardApplicable()": {
        "details": "Returns the last time reward was applicable (current time or period finish, whichever is lower)."
      },
      "notifyRewardAmount(uint256,uint256)": {
        "details": "Owner-funded reward deposit. The owner (platform treasury) can deposit reward tokens to fund the reward pool. If the current reward period is still active, any leftover rewards are added.",
        "params": {
          "duration": "The duration (in seconds) over which to distribute the rewards.",
          "rewardAmount": "The total reward tokens to be distributed."
        }
      },
      "rewardPerToken()": {
        "details": "Calculates the current reward per token accumulated."
      },
      "stake(uint256)": {
        "details": "Stake a specific amount of tokens.",
        "params": {
          "amount": "The number of tokens to stake."
        }
      },
      "withdraw(uint256)": {
        "details": "Withdraw staked tokens.",
        "params": {
          "amount": "The number of tokens to withdraw."
        }
      }
    },
    "title": "WorkLobStaking",
    "version": 1
  },
  "userdoc": {
    "kind": "user",
    "methods": {},
    "version": 1
  }
}