{
    "contractName": "QuizPlatform",
    "abi": [
        {
            "anonymous": false,
            "inputs": [
                {
                    "indexed": true,
                    "internalType": "uint256",
                    "name": "quizId",
                    "type": "uint256"
                },
                {
                    "indexed": true,
                    "internalType": "address",
                    "name": "participant",
                    "type": "address"
                }
            ],
            "name": "ParticipantAdded",
            "type": "event"
        },
        {
            "anonymous": false,
            "inputs": [
                {
                    "indexed": true,
                    "internalType": "uint256",
                    "name": "quizId",
                    "type": "uint256"
                }
            ],
            "name": "QuizClosed",
            "type": "event"
        },
        {
            "anonymous": false,
            "inputs": [
                {
                    "indexed": true,
                    "internalType": "uint256",
                    "name": "quizId",
                    "type": "uint256"
                },
                {
                    "indexed": true,
                    "internalType": "address",
                    "name": "organizer",
                    "type": "address"
                },
                {
                    "indexed": false,
                    "internalType": "string",
                    "name": "title",
                    "type": "string"
                },
                {
                    "indexed": false,
                    "internalType": "string",
                    "name": "description",
                    "type": "string"
                },
                {
                    "indexed": false,
                    "internalType": "uint256",
                    "name": "entranceFee",
                    "type": "uint256"
                },
                {
                    "indexed": false,
                    "internalType": "uint256",
                    "name": "pricePool",
                    "type": "uint256"
                },
                {
                    "indexed": false,
                    "internalType": "uint256",
                    "name": "timer",
                    "type": "uint256"
                },
                {
                    "indexed": false,
                    "internalType": "string",
                    "name": "visibility",
                    "type": "string"
                }
            ],
            "name": "QuizCreated",
            "type": "event"
        },
        {
            "anonymous": false,
            "inputs": [
                {
                    "indexed": true,
                    "internalType": "uint256",
                    "name": "quizId",
                    "type": "uint256"
                },
                {
                    "indexed": false,
                    "internalType": "address[]",
                    "name": "participants",
                    "type": "address[]"
                },
                {
                    "indexed": false,
                    "internalType": "uint256[]",
                    "name": "amounts",
                    "type": "uint256[]"
                }
            ],
            "name": "RewardsDistributed",
            "type": "event"
        },
        {
            "inputs": [
                {
                    "internalType": "uint256",
                    "name": "",
                    "type": "uint256"
                },
                {
                    "internalType": "uint256",
                    "name": "",
                    "type": "uint256"
                }
            ],
            "name": "quizParticipantAddresses",
            "outputs": [
                {
                    "internalType": "address",
                    "name": "",
                    "type": "address"
                }
            ],
            "stateMutability": "view",
            "type": "function",
            "constant": true
        },
        {
            "inputs": [
                {
                    "internalType": "uint256",
                    "name": "",
                    "type": "uint256"
                },
                {
                    "internalType": "address",
                    "name": "",
                    "type": "address"
                }
            ],
            "name": "quizParticipants",
            "outputs": [
                {
                    "internalType": "uint256",
                    "name": "numQuestionsPassed",
                    "type": "uint256"
                },
                {
                    "internalType": "uint256",
                    "name": "numQuestionsFailed",
                    "type": "uint256"
                },
                {
                    "internalType": "uint256",
                    "name": "points",
                    "type": "uint256"
                },
                {
                    "internalType": "uint256",
                    "name": "grade",
                    "type": "uint256"
                },
                {
                    "internalType": "uint256",
                    "name": "attempts",
                    "type": "uint256"
                }
            ],
            "stateMutability": "view",
            "type": "function",
            "constant": true
        },
        {
            "inputs": [
                {
                    "internalType": "uint256",
                    "name": "",
                    "type": "uint256"
                }
            ],
            "name": "quizzes",
            "outputs": [
                {
                    "internalType": "string",
                    "name": "title",
                    "type": "string"
                },
                {
                    "internalType": "string",
                    "name": "description",
                    "type": "string"
                },
                {
                    "internalType": "string",
                    "name": "imageUrl",
                    "type": "string"
                },
                {
                    "internalType": "uint256",
                    "name": "entranceFee",
                    "type": "uint256"
                },
                {
                    "internalType": "uint256",
                    "name": "pricePool",
                    "type": "uint256"
                },
                {
                    "internalType": "uint256",
                    "name": "timer",
                    "type": "uint256"
                },
                {
                    "internalType": "address",
                    "name": "organizer",
                    "type": "address"
                },
                {
                    "internalType": "bool",
                    "name": "isActive",
                    "type": "bool"
                },
                {
                    "internalType": "bool",
                    "name": "isEnded",
                    "type": "bool"
                },
                {
                    "internalType": "string",
                    "name": "visibility",
                    "type": "string"
                }
            ],
            "stateMutability": "view",
            "type": "function",
            "constant": true
        },
        {
            "inputs": [
                {
                    "internalType": "string",
                    "name": "title",
                    "type": "string"
                },
                {
                    "internalType": "string",
                    "name": "description",
                    "type": "string"
                },
                {
                    "internalType": "string",
                    "name": "imageUrl",
                    "type": "string"
                },
                {
                    "internalType": "uint256",
                    "name": "entranceFee",
                    "type": "uint256"
                },
                {
                    "internalType": "uint256",
                    "name": "pricePool",
                    "type": "uint256"
                },
                {
                    "internalType": "uint256",
                    "name": "timer",
                    "type": "uint256"
                },
                {
                    "components": [
                        {
                            "internalType": "string",
                            "name": "questionText",
                            "type": "string"
                        },
                        {
                            "internalType": "string",
                            "name": "questionImg",
                            "type": "string"
                        },
                        {
                            "internalType": "string[]",
                            "name": "options",
                            "type": "string[]"
                        },
                        {
                            "internalType": "uint256",
                            "name": "correctOption",
                            "type": "uint256"
                        }
                    ],
                    "internalType": "struct QuizPlatform.Question[]",
                    "name": "questions",
                    "type": "tuple[]"
                },
                {
                    "components": [
                        {
                            "internalType": "string",
                            "name": "label",
                            "type": "string"
                        },
                        {
                            "internalType": "uint256",
                            "name": "value",
                            "type": "uint256"
                        }
                    ],
                    "internalType": "struct QuizPlatform.Reward[3]",
                    "name": "rewards",
                    "type": "tuple[3]"
                },
                {
                    "internalType": "string",
                    "name": "visibility",
                    "type": "string"
                }
            ],
            "name": "createQuiz",
            "outputs": [],
            "stateMutability": "payable",
            "type": "function",
            "payable": true
        },
        {
            "inputs": [
                {
                    "internalType": "uint256",
                    "name": "quizId",
                    "type": "uint256"
                }
            ],
            "name": "participateInQuiz",
            "outputs": [],
            "stateMutability": "payable",
            "type": "function",
            "payable": true
        },
        {
            "inputs": [
                {
                    "internalType": "uint256",
                    "name": "quizId",
                    "type": "uint256"
                },
                {
                    "internalType": "uint256",
                    "name": "grade",
                    "type": "uint256"
                },
                {
                    "internalType": "uint256",
                    "name": "numQuestionsFailed",
                    "type": "uint256"
                },
                {
                    "internalType": "uint256",
                    "name": "numQuestionsPassed",
                    "type": "uint256"
                },
                {
                    "internalType": "uint256",
                    "name": "points",
                    "type": "uint256"
                }
            ],
            "name": "submitQuizResult",
            "outputs": [],
            "stateMutability": "nonpayable",
            "type": "function"
        },
        {
            "inputs": [
                {
                    "internalType": "uint256",
                    "name": "quizId",
                    "type": "uint256"
                },
                {
                    "internalType": "address[]",
                    "name": "participants",
                    "type": "address[]"
                },
                {
                    "internalType": "uint256[]",
                    "name": "amounts",
                    "type": "uint256[]"
                }
            ],
            "name": "distributeRewards",
            "outputs": [],
            "stateMutability": "nonpayable",
            "type": "function"
        },
        {
            "inputs": [
                {
                    "internalType": "uint256",
                    "name": "quizId",
                    "type": "uint256"
                }
            ],
            "name": "getQuiz",
            "outputs": [
                {
                    "internalType": "string",
                    "name": "title",
                    "type": "string"
                },
                {
                    "internalType": "string",
                    "name": "description",
                    "type": "string"
                },
                {
                    "internalType": "string",
                    "name": "imageUrl",
                    "type": "string"
                },
                {
                    "internalType": "uint256",
                    "name": "entranceFee",
                    "type": "uint256"
                },
                {
                    "internalType": "uint256",
                    "name": "pricePool",
                    "type": "uint256"
                },
                {
                    "internalType": "uint256",
                    "name": "timer",
                    "type": "uint256"
                },
                {
                    "internalType": "bool",
                    "name": "isActive",
                    "type": "bool"
                },
                {
                    "internalType": "bool",
                    "name": "isEnded",
                    "type": "bool"
                },
                {
                    "components": [
                        {
                            "internalType": "string",
                            "name": "label",
                            "type": "string"
                        },
                        {
                            "internalType": "uint256",
                            "name": "value",
                            "type": "uint256"
                        }
                    ],
                    "internalType": "struct QuizPlatform.Reward[]",
                    "name": "rewards",
                    "type": "tuple[]"
                }
            ],
            "stateMutability": "view",
            "type": "function",
            "constant": true
        },
        {
            "inputs": [
                {
                    "internalType": "uint256",
                    "name": "quizId",
                    "type": "uint256"
                }
            ],
            "name": "getQuizQuestions",
            "outputs": [
                {
                    "components": [
                        {
                            "internalType": "string",
                            "name": "questionText",
                            "type": "string"
                        },
                        {
                            "internalType": "string",
                            "name": "questionImg",
                            "type": "string"
                        },
                        {
                            "internalType": "string[]",
                            "name": "options",
                            "type": "string[]"
                        },
                        {
                            "internalType": "uint256",
                            "name": "correctOption",
                            "type": "uint256"
                        }
                    ],
                    "internalType": "struct QuizPlatform.Question[]",
                    "name": "",
                    "type": "tuple[]"
                }
            ],
            "stateMutability": "view",
            "type": "function",
            "constant": true
        },
        {
            "inputs": [],
            "name": "getQuizzesCount",
            "outputs": [
                {
                    "internalType": "uint256",
                    "name": "",
                    "type": "uint256"
                }
            ],
            "stateMutability": "view",
            "type": "function",
            "constant": true
        },
        {
            "inputs": [
                {
                    "internalType": "uint256",
                    "name": "quizId",
                    "type": "uint256"
                },
                {
                    "internalType": "address",
                    "name": "participant",
                    "type": "address"
                }
            ],
            "name": "isParticipant",
            "outputs": [
                {
                    "internalType": "bool",
                    "name": "",
                    "type": "bool"
                }
            ],
            "stateMutability": "view",
            "type": "function",
            "constant": true
        },
        {
            "inputs": [
                {
                    "internalType": "uint256",
                    "name": "quizId",
                    "type": "uint256"
                },
                {
                    "internalType": "address",
                    "name": "participant",
                    "type": "address"
                }
            ],
            "name": "getParticipantDetails",
            "outputs": [
                {
                    "internalType": "uint256",
                    "name": "numQuestionsPassed",
                    "type": "uint256"
                },
                {
                    "internalType": "uint256",
                    "name": "numQuestionsFailed",
                    "type": "uint256"
                },
                {
                    "internalType": "uint256",
                    "name": "points",
                    "type": "uint256"
                },
                {
                    "internalType": "uint256",
                    "name": "grade",
                    "type": "uint256"
                }
            ],
            "stateMutability": "view",
            "type": "function",
            "constant": true
        },
        {
            "inputs": [
                {
                    "internalType": "uint256",
                    "name": "quizId",
                    "type": "uint256"
                }
            ],
            "name": "getQuizParticipants",
            "outputs": [
                {
                    "internalType": "address[]",
                    "name": "",
                    "type": "address[]"
                }
            ],
            "stateMutability": "view",
            "type": "function",
            "constant": true
        },
        {
            "inputs": [
                {
                    "internalType": "uint256",
                    "name": "quizId",
                    "type": "uint256"
                }
            ],
            "name": "getQuizParticipantsCount",
            "outputs": [
                {
                    "internalType": "uint256",
                    "name": "",
                    "type": "uint256"
                }
            ],
            "stateMutability": "view",
            "type": "function",
            "constant": true
        },
        {
            "inputs": [
                {
                    "internalType": "uint256",
                    "name": "quizId",
                    "type": "uint256"
                },
                {
                    "internalType": "uint256",
                    "name": "index",
                    "type": "uint256"
                }
            ],
            "name": "getQuizParticipant",
            "outputs": [
                {
                    "internalType": "address",
                    "name": "",
                    "type": "address"
                }
            ],
            "stateMutability": "view",
            "type": "function",
            "constant": true
        },
        {
            "inputs": [
                {
                    "internalType": "address",
                    "name": "participant",
                    "type": "address"
                }
            ],
            "name": "getEndedQuizzesByParticipant",
            "outputs": [
                {
                    "components": [
                        {
                            "internalType": "string",
                            "name": "title",
                            "type": "string"
                        },
                        {
                            "internalType": "string",
                            "name": "description",
                            "type": "string"
                        },
                        {
                            "internalType": "string",
                            "name": "imageUrl",
                            "type": "string"
                        },
                        {
                            "internalType": "uint256",
                            "name": "entranceFee",
                            "type": "uint256"
                        },
                        {
                            "internalType": "uint256",
                            "name": "pricePool",
                            "type": "uint256"
                        },
                        {
                            "internalType": "uint256",
                            "name": "timer",
                            "type": "uint256"
                        },
                        {
                            "components": [
                                {
                                    "internalType": "string",
                                    "name": "questionText",
                                    "type": "string"
                                },
                                {
                                    "internalType": "string",
                                    "name": "questionImg",
                                    "type": "string"
                                },
                                {
                                    "internalType": "string[]",
                                    "name": "options",
                                    "type": "string[]"
                                },
                                {
                                    "internalType": "uint256",
                                    "name": "correctOption",
                                    "type": "uint256"
                                }
                            ],
                            "internalType": "struct QuizPlatform.Question[]",
                            "name": "questions",
                            "type": "tuple[]"
                        },
                        {
                            "components": [
                                {
                                    "internalType": "string",
                                    "name": "label",
                                    "type": "string"
                                },
                                {
                                    "internalType": "uint256",
                                    "name": "value",
                                    "type": "uint256"
                                }
                            ],
                            "internalType": "struct QuizPlatform.Reward[]",
                            "name": "rewards",
                            "type": "tuple[]"
                        },
                        {
                            "internalType": "address",
                            "name": "organizer",
                            "type": "address"
                        },
                        {
                            "internalType": "bool",
                            "name": "isActive",
                            "type": "bool"
                        },
                        {
                            "internalType": "bool",
                            "name": "isEnded",
                            "type": "bool"
                        },
                        {
                            "internalType": "string",
                            "name": "visibility",
                            "type": "string"
                        }
                    ],
                    "internalType": "struct QuizPlatform.Quiz[]",
                    "name": "",
                    "type": "tuple[]"
                }
            ],
            "stateMutability": "view",
            "type": "function",
            "constant": true
        }
    ],
    "bytecode": "0x608060405234801561001057600080fd5b506141f0806100206000396000f3fe6080604052600436106100f35760003560e01c8063758d9b891161008a578063a3f7e09611610059578063a3f7e09614610389578063d7aaf648146103ce578063dd9fc7001461040b578063e31a35e314610427576100f3565b8063758d9b891461029e57806388409afa146102db5780639f0f843814610321578063a1ae0e551461034c576100f3565b806355eae06d116100c657806355eae06d146101db5780635698dcd514610218578063595fb9e61461024157806360ef704f1461025d576100f3565b806319d6a88d146100f85780632000e4691461012157806332bee4671461015e57806353a4f0dd1461019e575b600080fd5b34801561010457600080fd5b5061011f600480360381019061011a9190612de7565b610464565b005b34801561012d57600080fd5b5061014860048036038101906101439190612c03565b610846565b60405161015591906138bc565b60405180910390f35b34801561016a57600080fd5b5061018560048036038101906101809190612dab565b61119e565b6040516101959493929190613beb565b60405180910390f35b3480156101aa57600080fd5b506101c560048036038101906101c09190612e66565b61121e565b6040516101d29190613826565b60405180910390f35b3480156101e757600080fd5b5061020260048036038101906101fd9190612d82565b61126c565b60405161020f9190613bd0565b60405180910390f35b34801561022457600080fd5b5061023f600480360381019061023a9190612ea2565b61128c565b005b61025b60048036038101906102569190612d82565b61143f565b005b34801561026957600080fd5b50610284600480360381019061027f9190612dab565b61165c565b604051610295959493929190613c30565b60405180910390f35b3480156102aa57600080fd5b506102c560048036038101906102c09190612dab565b61169f565b6040516102d291906138de565b60405180910390f35b3480156102e757600080fd5b5061030260048036038101906102fd9190612d82565b6116ff565b6040516103189a999897969594939291906138f9565b60405180910390f35b34801561032d57600080fd5b506103366119bd565b6040516103439190613bd0565b60405180910390f35b34801561035857600080fd5b50610373600480360381019061036e9190612e66565b6119c9565b6040516103809190613826565b60405180910390f35b34801561039557600080fd5b506103b060048036038101906103ab9190612d82565b611aa1565b6040516103c5999897969594939291906139b1565b60405180910390f35b3480156103da57600080fd5b506103f560048036038101906103f09190612d82565b611df7565b604051610402919061389a565b60405180910390f35b61042560048036038101906104209190612c2c565b6120ad565b005b34801561043357600080fd5b5061044e60048036038101906104499190612d82565b612519565b60405161045b9190613841565b60405180910390f35b600080848154811061049f577f4e487b7100000000000000000000000000000000000000000000000000000000600052603260045260246000fd5b90600052602060002090600a020190508060080160009054906101000a900473ffffffffffffffffffffffffffffffffffffffff1673ffffffffffffffffffffffffffffffffffffffff163373ffffffffffffffffffffffffffffffffffffffff1614610541576040517f08c379a000000000000000000000000000000000000000000000000000000000815260040161053890613b70565b60405180910390fd5b8060080160149054906101000a900460ff16610592576040517f08c379a000000000000000000000000000000000000000000000000000000000815260040161058990613af0565b60405180910390fd5b81518351146105d6576040517f08c379a00000000000000000000000000000000000000000000000000000000081526004016105cd90613b30565b60405180910390fd5b60005b835181101561079e5782818151811061061b577f4e487b7100000000000000000000000000000000000000000000000000000000600052603260045260246000fd5b602002602001015182600401541015610669576040517f08c379a000000000000000000000000000000000000000000000000000000000815260040161066090613b10565b60405180910390fd5b8281815181106106a2577f4e487b7100000000000000000000000000000000000000000000000000000000600052603260045260246000fd5b60200260200101518260040160008282546106bd9190613fb5565b925050819055508381815181106106fd577f4e487b7100000000000000000000000000000000000000000000000000000000600052603260045260246000fd5b602002602001015173ffffffffffffffffffffffffffffffffffffffff166108fc848381518110610757577f4e487b7100000000000000000000000000000000000000000000000000000000600052603260045260246000fd5b60200260200101519081150290604051600060405180830381858888f1935050505015801561078a573d6000803e3d6000fd5b508080610796906140a5565b9150506105d9565b5060008160080160146101000a81548160ff02191690831515021790555060018160080160156101000a81548160ff021916908315150217905550837fac9fe8ad7f55eac03284399116ecafc104f10459773f4cdf47063c46e5be335a848460405161080b929190613863565b60405180910390a2837f79e9a7dcc542d287d52a353ae39aa2f36a6a96932ff171d2f5742cf7a0869dcf60405160405180910390a250505050565b60606000805b6000805490508110156109385760008181548110610893577f4e487b7100000000000000000000000000000000000000000000000000000000600052603260045260246000fd5b90600052602060002090600a020160080160159054906101000a900460ff168015610911575060006001600083815260200190815260200160002060008673ffffffffffffffffffffffffffffffffffffffff1673ffffffffffffffffffffffffffffffffffffffff16815260200190815260200160002060040154115b15610925578180610921906140a5565b9250505b8080610930906140a5565b91505061084c565b5060008167ffffffffffffffff81111561097b577f4e487b7100000000000000000000000000000000000000000000000000000000600052604160045260246000fd5b6040519080825280602002602001820160405280156109b457816020015b6109a16125ba565b8152602001906001900390816109995790505b5090506000805b6000805490508110156111925760008181548110610a02577f4e487b7100000000000000000000000000000000000000000000000000000000600052603260045260246000fd5b90600052602060002090600a020160080160159054906101000a900460ff168015610a80575060006001600083815260200190815260200160002060008873ffffffffffffffffffffffffffffffffffffffff1673ffffffffffffffffffffffffffffffffffffffff16815260200190815260200160002060040154115b1561117f5760008181548110610abf577f4e487b7100000000000000000000000000000000000000000000000000000000600052603260045260246000fd5b90600052602060002090600a020160405180610180016040529081600082018054610ae990614073565b80601f0160208091040260200160405190810160405280929190818152602001828054610b1590614073565b8015610b625780601f10610b3757610100808354040283529160200191610b62565b820191906000526020600020905b815481529060010190602001808311610b4557829003601f168201915b50505050508152602001600182018054610b7b90614073565b80601f0160208091040260200160405190810160405280929190818152602001828054610ba790614073565b8015610bf45780601f10610bc957610100808354040283529160200191610bf4565b820191906000526020600020905b815481529060010190602001808311610bd757829003601f168201915b50505050508152602001600282018054610c0d90614073565b80601f0160208091040260200160405190810160405280929190818152602001828054610c3990614073565b8015610c865780601f10610c5b57610100808354040283529160200191610c86565b820191906000526020600020905b815481529060010190602001808311610c6957829003601f168201915b5050505050815260200160038201548152602001600482015481526020016005820154815260200160068201805480602002602001604051908101604052809291908181526020016000905b82821015610f0b5783829060005260206000209060040201604051806080016040529081600082018054610d0590614073565b80601f0160208091040260200160405190810160405280929190818152602001828054610d3190614073565b8015610d7e5780601f10610d5357610100808354040283529160200191610d7e565b820191906000526020600020905b815481529060010190602001808311610d6157829003601f168201915b50505050508152602001600182018054610d9790614073565b80601f0160208091040260200160405190810160405280929190818152602001828054610dc390614073565b8015610e105780601f10610de557610100808354040283529160200191610e10565b820191906000526020600020905b815481529060010190602001808311610df357829003601f168201915b5050505050815260200160028201805480602002602001604051908101604052809291908181526020016000905b82821015610eea578382906000526020600020018054610e5d90614073565b80601f0160208091040260200160405190810160405280929190818152602001828054610e8990614073565b8015610ed65780601f10610eab57610100808354040283529160200191610ed6565b820191906000526020600020905b815481529060010190602001808311610eb957829003601f168201915b505050505081526020019060010190610e3e565b50505050815260200160038201548152505081526020019060010190610cd2565b50505050815260200160078201805480602002602001604051908101604052809291908181526020016000905b828210156110065783829060005260206000209060020201604051806040016040529081600082018054610f6b90614073565b80601f0160208091040260200160405190810160405280929190818152602001828054610f9790614073565b8015610fe45780601f10610fb957610100808354040283529160200191610fe4565b820191906000526020600020905b815481529060010190602001808311610fc757829003601f168201915b5050505050815260200160018201548152505081526020019060010190610f38565b5050505081526020016008820160009054906101000a900473ffffffffffffffffffffffffffffffffffffffff1673ffffffffffffffffffffffffffffffffffffffff1673ffffffffffffffffffffffffffffffffffffffff1681526020016008820160149054906101000a900460ff161515151581526020016008820160159054906101000a900460ff161515151581526020016009820180546110aa90614073565b80601f01602080910402602001604051908101604052809291908181526020018280546110d690614073565b80156111235780601f106110f857610100808354040283529160200191611123565b820191906000526020600020905b81548152906001019060200180831161110657829003601f168201915b505050505081525050838381518110611165577f4e487b7100000000000000000000000000000000000000000000000000000000600052603260045260246000fd5b6020026020010181905250818061117b906140a5565b9250505b808061118a906140a5565b9150506109bb565b50819350505050919050565b60008060008060006001600088815260200190815260200160002060008773ffffffffffffffffffffffffffffffffffffffff1673ffffffffffffffffffffffffffffffffffffffff1681526020019081526020016000209050806000015481600101548260020154836003015494509450945094505092959194509250565b6002602052816000526040600020818154811061123a57600080fd5b906000526020600020016000915091509054906101000a900473ffffffffffffffffffffffffffffffffffffffff1681565b600060026000838152602001908152602001600020805490509050919050565b60008086815481106112c7577f4e487b7100000000000000000000000000000000000000000000000000000000600052603260045260246000fd5b90600052602060002090600a0201905060006001600088815260200190815260200160002060003373ffffffffffffffffffffffffffffffffffffffff1673ffffffffffffffffffffffffffffffffffffffff168152602001908152602001600020600401541161136d576040517f08c379a000000000000000000000000000000000000000000000000000000000815260040161136490613ad0565b60405180910390fd5b8060080160149054906101000a900460ff166113be576040517f08c379a00000000000000000000000000000000000000000000000000000000081526004016113b590613af0565b60405180910390fd5b60006001600088815260200190815260200160002060003373ffffffffffffffffffffffffffffffffffffffff1673ffffffffffffffffffffffffffffffffffffffff168152602001908152602001600020905085816003018190555084816001018190555083816000018190555082816002018190555050505050505050565b600080828154811061147a577f4e487b7100000000000000000000000000000000000000000000000000000000600052603260045260246000fd5b90600052602060002090600a02019050806003015434146114d0576040517f08c379a00000000000000000000000000000000000000000000000000000000081526004016114c790613b90565b60405180910390fd5b8060080160149054906101000a900460ff16611521576040517f08c379a000000000000000000000000000000000000000000000000000000000815260040161151890613af0565b60405180910390fd5b60006001600084815260200190815260200160002060003373ffffffffffffffffffffffffffffffffffffffff1673ffffffffffffffffffffffffffffffffffffffff16815260200190815260200160002090506000816004015414156115f75760026000848152602001908152602001600020339080600181540180825580915050600190039060005260206000200160009091909190916101000a81548173ffffffffffffffffffffffffffffffffffffffff021916908373ffffffffffffffffffffffffffffffffffffffff1602179055505b600181600401600082825461160c9190613f5f565b925050819055503373ffffffffffffffffffffffffffffffffffffffff16837f12246ba2398106df92bc0281a1eece14e5b8516c5c3dab76205391650e39fddb60405160405180910390a3505050565b6001602052816000526040600020602052806000526040600020600091509150508060000154908060010154908060020154908060030154908060040154905085565b6000806001600085815260200190815260200160002060008473ffffffffffffffffffffffffffffffffffffffff1673ffffffffffffffffffffffffffffffffffffffff1681526020019081526020016000206004015411905092915050565b6000818154811061170f57600080fd5b90600052602060002090600a020160009150905080600001805461173290614073565b80601f016020809104026020016040519081016040528092919081815260200182805461175e90614073565b80156117ab5780601f10611780576101008083540402835291602001916117ab565b820191906000526020600020905b81548152906001019060200180831161178e57829003601f168201915b5050505050908060010180546117c090614073565b80601f01602080910402602001604051908101604052809291908181526020018280546117ec90614073565b80156118395780601f1061180e57610100808354040283529160200191611839565b820191906000526020600020905b81548152906001019060200180831161181c57829003601f168201915b50505050509080600201805461184e90614073565b80601f016020809104026020016040519081016040528092919081815260200182805461187a90614073565b80156118c75780601f1061189c576101008083540402835291602001916118c7565b820191906000526020600020905b8154815290600101906020018083116118aa57829003601f168201915b5050505050908060030154908060040154908060050154908060080160009054906101000a900473ffffffffffffffffffffffffffffffffffffffff16908060080160149054906101000a900460ff16908060080160159054906101000a900460ff169080600901805461193a90614073565b80601f016020809104026020016040519081016040528092919081815260200182805461196690614073565b80156119b35780601f10611988576101008083540402835291602001916119b3565b820191906000526020600020905b81548152906001019060200180831161199657829003601f168201915b505050505090508a565b60008080549050905090565b600060026000848152602001908152602001600020805490508210611a23576040517f08c379a0000000000000000000000000000000000000000000000000000000008152600401611a1a90613bb0565b60405180910390fd5b600260008481526020019081526020016000208281548110611a6e577f4e487b7100000000000000000000000000000000000000000000000000000000600052603260045260246000fd5b9060005260206000200160009054906101000a900473ffffffffffffffffffffffffffffffffffffffff16905092915050565b6060806060600080600080600060606000808b81548110611aeb577f4e487b7100000000000000000000000000000000000000000000000000000000600052603260045260246000fd5b90600052602060002090600a020190508060000181600101826002018360030154846004015485600501548660080160149054906101000a900460ff168760080160159054906101000a900460ff1688600701888054611b4a90614073565b80601f0160208091040260200160405190810160405280929190818152602001828054611b7690614073565b8015611bc35780601f10611b9857610100808354040283529160200191611bc3565b820191906000526020600020905b815481529060010190602001808311611ba657829003601f168201915b50505050509850878054611bd690614073565b80601f0160208091040260200160405190810160405280929190818152602001828054611c0290614073565b8015611c4f5780601f10611c2457610100808354040283529160200191611c4f565b820191906000526020600020905b815481529060010190602001808311611c3257829003601f168201915b50505050509750868054611c6290614073565b80601f0160208091040260200160405190810160405280929190818152602001828054611c8e90614073565b8015611cdb5780601f10611cb057610100808354040283529160200191611cdb565b820191906000526020600020905b815481529060010190602001808311611cbe57829003601f168201915b5050505050965080805480602002602001604051908101604052809291908181526020016000905b82821015611dd15783829060005260206000209060020201604051806040016040529081600082018054611d3690614073565b80601f0160208091040260200160405190810160405280929190818152602001828054611d6290614073565b8015611daf5780601f10611d8457610100808354040283529160200191611daf565b820191906000526020600020905b815481529060010190602001808311611d9257829003601f168201915b5050505050815260200160018201548152505081526020019060010190611d03565b505050509050995099509950995099509950995099509950509193959799909294969850565b60606000808381548110611e34577f4e487b7100000000000000000000000000000000000000000000000000000000600052603260045260246000fd5b90600052602060002090600a0201905080600601805480602002602001604051908101604052809291908181526020016000905b828210156120a15783829060005260206000209060040201604051806080016040529081600082018054611e9b90614073565b80601f0160208091040260200160405190810160405280929190818152602001828054611ec790614073565b8015611f145780601f10611ee957610100808354040283529160200191611f14565b820191906000526020600020905b815481529060010190602001808311611ef757829003601f168201915b50505050508152602001600182018054611f2d90614073565b80601f0160208091040260200160405190810160405280929190818152602001828054611f5990614073565b8015611fa65780601f10611f7b57610100808354040283529160200191611fa6565b820191906000526020600020905b815481529060010190602001808311611f8957829003601f168201915b5050505050815260200160028201805480602002602001604051908101604052809291908181526020016000905b82821015612080578382906000526020600020018054611ff390614073565b80601f016020809104026020016040519081016040528092919081815260200182805461201f90614073565b801561206c5780601f106120415761010080835404028352916020019161206c565b820191906000526020600020905b81548152906001019060200180831161204f57829003601f168201915b505050505081526020019060010190611fd4565b50505050815260200160038201548152505081526020019060010190611e68565b50505050915050919050565b8434146120ef576040517f08c379a00000000000000000000000000000000000000000000000000000000081526004016120e690613b50565b60405180910390fd5b6000806001816001815401808255809150500390600052602060002090600a020190508981600001908051906020019061212a929190612635565b5088816001019080519060200190612143929190612635565b508781600201908051906020019061215c929190612635565b50868160030181905550858160040181905550848160050181905550338160080160006101000a81548173ffffffffffffffffffffffffffffffffffffffff021916908373ffffffffffffffffffffffffffffffffffffffff16021790555060018160080160146101000a81548160ff02191690831515021790555060008160080160156101000a81548160ff0219169083151502179055508181600901908051906020019061220d929190612635565b5060005b84518110156123ee57816006016040518060800160405280878481518110612262577f4e487b7100000000000000000000000000000000000000000000000000000000600052603260045260246000fd5b60200260200101516000015181526020018784815181106122ac577f4e487b7100000000000000000000000000000000000000000000000000000000600052603260045260246000fd5b60200260200101516020015181526020018784815181106122f6577f4e487b7100000000000000000000000000000000000000000000000000000000600052603260045260246000fd5b6020026020010151604001518152602001878481518110612340577f4e487b7100000000000000000000000000000000000000000000000000000000600052603260045260246000fd5b60200260200101516060015181525090806001815401808255809150506001900390600052602060002090600402016000909190919091506000820151816000019080519060200190612394929190612635565b5060208201518160010190805190602001906123b1929190612635565b5060408201518160020190805190602001906123ce9291906126bb565b5060608201518160030155505080806123e6906140a5565b915050612211565b5060005b60038110156124a25781600701848260038110612438577f4e487b7100000000000000000000000000000000000000000000000000000000600052603260045260246000fd5b602002015190806001815401808255809150506001900390600052602060002090600202016000909190919091506000820151816000019080519060200190612482929190612635565b50602082015181600101555050808061249a906140a5565b9150506123f2565b503373ffffffffffffffffffffffffffffffffffffffff1660016000805490506124cc9190613fb5565b7fcd91b581b2cfc6753b00706fc53330c7cd0ca6a209417246f5c00b93d73e5f6e8c8c8b8b8b8960405161250596959493929190613a5a565b60405180910390a350505050505050505050565b6060600260008381526020019081526020016000208054806020026020016040519081016040528092919081815260200182805480156125ae57602002820191906000526020600020905b8160009054906101000a900473ffffffffffffffffffffffffffffffffffffffff1673ffffffffffffffffffffffffffffffffffffffff1681526020019060010190808311612564575b50505050509050919050565b6040518061018001604052806060815260200160608152602001606081526020016000815260200160008152602001600081526020016060815260200160608152602001600073ffffffffffffffffffffffffffffffffffffffff168152602001600015158152602001600015158152602001606081525090565b82805461264190614073565b90600052602060002090601f01602090048101928261266357600085556126aa565b82601f1061267c57805160ff19168380011785556126aa565b828001600101855582156126aa579182015b828111156126a957825182559160200191906001019061268e565b5b5090506126b7919061271b565b5090565b82805482825590600052602060002090810192821561270a579160200282015b828111156127095782518290805190602001906126f9929190612635565b50916020019190600101906126db565b5b5090506127179190612738565b5090565b5b8082111561273457600081600090555060010161271c565b5090565b5b80821115612758576000818161274f919061275c565b50600101612739565b5090565b50805461276890614073565b6000825580601f1061277a5750612799565b601f016020900490600052602060002090810190612798919061271b565b5b50565b60006127af6127aa84613cb4565b613c83565b905080838252602082019050828560208602820111156127ce57600080fd5b60005b858110156127fe57816127e488826129c0565b8452602084019350602083019250506001810190506127d1565b5050509392505050565b600061281b61281684613ce0565b613c83565b9050808382526020820190508260005b8581101561285b57813585016128418882612aa4565b84526020840193506020830192505060018101905061282b565b5050509392505050565b600061287861287384613d0c565b613c83565b9050808382526020820190508260005b858110156128b8578135850161289e8882612ace565b845260208401935060208301925050600181019050612888565b5050509392505050565b60006128d56128d084613d38565b613c83565b9050808260005b8581101561290c57813585016128f28882612b8a565b8452602084019350602083019250506001810190506128dc565b5050509392505050565b600061292961292484613d5e565b613c83565b9050808382526020820190508285602086028201111561294857600080fd5b60005b85811015612978578161295e8882612bee565b84526020840193506020830192505060018101905061294b565b5050509392505050565b600061299561299084613d8a565b613c83565b9050828152602081018484840111156129ad57600080fd5b6129b8848285614031565b509392505050565b6000813590506129cf8161418c565b92915050565b600082601f8301126129e657600080fd5b81356129f684826020860161279c565b91505092915050565b600082601f830112612a1057600080fd5b8135612a20848260208601612808565b91505092915050565b600082601f830112612a3a57600080fd5b8135612a4a848260208601612865565b91505092915050565b600082601f830112612a6457600080fd5b6003612a718482856128c2565b91505092915050565b600082601f830112612a8b57600080fd5b8135612a9b848260208601612916565b91505092915050565b600082601f830112612ab557600080fd5b8135612ac5848260208601612982565b91505092915050565b600060808284031215612ae057600080fd5b612aea6080613c83565b9050600082013567ffffffffffffffff811115612b0657600080fd5b612b1284828501612aa4565b600083015250602082013567ffffffffffffffff811115612b3257600080fd5b612b3e84828501612aa4565b602083015250604082013567ffffffffffffffff811115612b5e57600080fd5b612b6a848285016129ff565b6040830152506060612b7e84828501612bee565b60608301525092915050565b600060408284031215612b9c57600080fd5b612ba66040613c83565b9050600082013567ffffffffffffffff811115612bc257600080fd5b612bce84828501612aa4565b6000830152506020612be284828501612bee565b60208301525092915050565b600081359050612bfd816141a3565b92915050565b600060208284031215612c1557600080fd5b6000612c23848285016129c0565b91505092915050565b60008060008060008060008060006101208a8c031215612c4b57600080fd5b60008a013567ffffffffffffffff811115612c6557600080fd5b612c718c828d01612aa4565b99505060208a013567ffffffffffffffff811115612c8e57600080fd5b612c9a8c828d01612aa4565b98505060408a013567ffffffffffffffff811115612cb757600080fd5b612cc38c828d01612aa4565b9750506060612cd48c828d01612bee565b9650506080612ce58c828d01612bee565b95505060a0612cf68c828d01612bee565b94505060c08a013567ffffffffffffffff811115612d1357600080fd5b612d1f8c828d01612a29565b93505060e08a013567ffffffffffffffff811115612d3c57600080fd5b612d488c828d01612a53565b9250506101008a013567ffffffffffffffff811115612d6657600080fd5b612d728c828d01612aa4565b9150509295985092959850929598565b600060208284031215612d9457600080fd5b6000612da284828501612bee565b91505092915050565b60008060408385031215612dbe57600080fd5b6000612dcc85828601612bee565b9250506020612ddd858286016129c0565b9150509250929050565b600080600060608486031215612dfc57600080fd5b6000612e0a86828701612bee565b935050602084013567ffffffffffffffff811115612e2757600080fd5b612e33868287016129d5565b925050604084013567ffffffffffffffff811115612e5057600080fd5b612e5c86828701612a7a565b9150509250925092565b60008060408385031215612e7957600080fd5b6000612e8785828601612bee565b9250506020612e9885828601612bee565b9150509250929050565b600080600080600060a08688031215612eba57600080fd5b6000612ec888828901612bee565b9550506020612ed988828901612bee565b9450506040612eea88828901612bee565b9350506060612efb88828901612bee565b9250506080612f0c88828901612bee565b9150509295509295909350565b6000612f258383612f99565b60208301905092915050565b6000612f3d838361334f565b905092915050565b6000612f518383613633565b905092915050565b6000612f6583836136a4565b905092915050565b6000612f7983836137cb565b905092915050565b6000612f8d8383613808565b60208301905092915050565b612fa281613fe9565b82525050565b612fb181613fe9565b82525050565b6000612fc282613e1a565b612fcc8185613eb5565b9350612fd783613dba565b8060005b83811015613008578151612fef8882612f19565b9750612ffa83613e67565b925050600181019050612fdb565b5085935050505092915050565b600061302082613e25565b61302a8185613ec6565b93508360208202850161303c85613dca565b8060005b8581101561307857848403895281516130598582612f31565b945061306483613e74565b925060208a01995050600181019050613040565b50829750879550505050505092915050565b600061309582613e30565b61309f8185613ed7565b9350836020820285016130b185613dda565b8060005b858110156130ed57848403895281516130ce8582612f45565b94506130d983613e81565b925060208a019950506001810190506130b5565b50829750879550505050505092915050565b600061310a82613e30565b6131148185613ee8565b93508360208202850161312685613dda565b8060005b8581101561316257848403895281516131438582612f45565b945061314e83613e81565b925060208a0199505060018101905061312a565b50829750879550505050505092915050565b600061317f82613e3b565b6131898185613ef9565b93508360208202850161319b85613dea565b8060005b858110156131d757848403895281516131b88582612f59565b94506131c383613e8e565b925060208a0199505060018101905061319f565b50829750879550505050505092915050565b60006131f482613e46565b6131fe8185613f0a565b93508360208202850161321085613dfa565b8060005b8581101561324c578484038952815161322d8582612f6d565b945061323883613e9b565b925060208a01995050600181019050613214565b50829750879550505050505092915050565b600061326982613e46565b6132738185613f1b565b93508360208202850161328585613dfa565b8060005b858110156132c157848403895281516132a28582612f6d565b94506132ad83613e9b565b925060208a01995050600181019050613289565b50829750879550505050505092915050565b60006132de82613e51565b6132e88185613f2c565b93506132f383613e0a565b8060005b8381101561332457815161330b8882612f81565b975061331683613ea8565b9250506001810190506132f7565b5085935050505092915050565b61333a81613ffb565b82525050565b61334981613ffb565b82525050565b600061335a82613e5c565b6133648185613f3d565b9350613374818560208601614040565b61337d8161417b565b840191505092915050565b600061339382613e5c565b61339d8185613f4e565b93506133ad818560208601614040565b6133b68161417b565b840191505092915050565b60006133ce601183613f4e565b91507f4e6f742061207061727469636970616e740000000000000000000000000000006000830152602082019050919050565b600061340e601283613f4e565b91507f5175697a206973206e6f742061637469766500000000000000000000000000006000830152602082019050919050565b600061344e602283613f4e565b91507f4e6f7420656e6f7567682066756e647320696e20746865207072697a6520706f60008301527f6f6c0000000000000000000000000000000000000000000000000000000000006020830152604082019050919050565b60006134b4602883613f4e565b91507f5061727469636970616e747320616e6420616d6f756e7473206c656e6774682060008301527f6d69736d617463680000000000000000000000000000000000000000000000006020830152604082019050919050565b600061351a602083613f4e565b91507f507269636520706f6f6c206d757374206265207061696420696e20544655454c6000830152602082019050919050565b600061355a602983613f4e565b91507f4f6e6c7920746865206f7267616e697a65722063616e2064697374726962757460008301527f65207265776172647300000000000000000000000000000000000000000000006020830152604082019050919050565b60006135c0601f83613f4e565b91507f496e636f727265637420656e7472616e63652066656520696e20544655454c006000830152602082019050919050565b6000613600601383613f4e565b91507f496e646578206f7574206f6620626f756e6473000000000000000000000000006000830152602082019050919050565b60006080830160008301518482036000860152613650828261334f565b9150506020830151848203602086015261366a828261334f565b915050604083015184820360408601526136848282613015565b91505060608301516136996060860182613808565b508091505092915050565b60006101808301600083015184820360008601526136c2828261334f565b915050602083015184820360208601526136dc828261334f565b915050604083015184820360408601526136f6828261334f565b915050606083015161370b6060860182613808565b50608083015161371e6080860182613808565b5060a083015161373160a0860182613808565b5060c083015184820360c0860152613749828261308a565b91505060e083015184820360e086015261376382826131e9565b91505061010083015161377a610100860182612f99565b5061012083015161378f610120860182613331565b506101408301516137a4610140860182613331565b506101608301518482036101608601526137be828261334f565b9150508091505092915050565b600060408301600083015184820360008601526137e8828261334f565b91505060208301516137fd6020860182613808565b508091505092915050565b61381181614027565b82525050565b61382081614027565b82525050565b600060208201905061383b6000830184612fa8565b92915050565b6000602082019050818103600083015261385b8184612fb7565b905092915050565b6000604082019050818103600083015261387d8185612fb7565b9050818103602083015261389181846132d3565b90509392505050565b600060208201905081810360008301526138b481846130ff565b905092915050565b600060208201905081810360008301526138d68184613174565b905092915050565b60006020820190506138f36000830184613340565b92915050565b6000610140820190508181036000830152613914818d613388565b90508181036020830152613928818c613388565b9050818103604083015261393c818b613388565b905061394b606083018a613817565b6139586080830189613817565b61396560a0830188613817565b61397260c0830187612fa8565b61397f60e0830186613340565b61398d610100830185613340565b8181036101208301526139a08184613388565b90509b9a5050505050505050505050565b60006101208201905081810360008301526139cc818c613388565b905081810360208301526139e0818b613388565b905081810360408301526139f4818a613388565b9050613a036060830189613817565b613a106080830188613817565b613a1d60a0830187613817565b613a2a60c0830186613340565b613a3760e0830185613340565b818103610100830152613a4a818461325e565b90509a9950505050505050505050565b600060c0820190508181036000830152613a748189613388565b90508181036020830152613a888188613388565b9050613a976040830187613817565b613aa46060830186613817565b613ab16080830185613817565b81810360a0830152613ac38184613388565b9050979650505050505050565b60006020820190508181036000830152613ae9816133c1565b9050919050565b60006020820190508181036000830152613b0981613401565b9050919050565b60006020820190508181036000830152613b2981613441565b9050919050565b60006020820190508181036000830152613b49816134a7565b9050919050565b60006020820190508181036000830152613b698161350d565b9050919050565b60006020820190508181036000830152613b898161354d565b9050919050565b60006020820190508181036000830152613ba9816135b3565b9050919050565b60006020820190508181036000830152613bc9816135f3565b9050919050565b6000602082019050613be56000830184613817565b92915050565b6000608082019050613c006000830187613817565b613c0d6020830186613817565b613c1a6040830185613817565b613c276060830184613817565b95945050505050565b600060a082019050613c456000830188613817565b613c526020830187613817565b613c5f6040830186613817565b613c6c6060830185613817565b613c796080830184613817565b9695505050505050565b6000604051905081810181811067ffffffffffffffff82111715613caa57613ca961414c565b5b8060405250919050565b600067ffffffffffffffff821115613ccf57613cce61414c565b5b602082029050602081019050919050565b600067ffffffffffffffff821115613cfb57613cfa61414c565b5b602082029050602081019050919050565b600067ffffffffffffffff821115613d2757613d2661414c565b5b602082029050602081019050919050565b600067ffffffffffffffff821115613d5357613d5261414c565b5b602082029050919050565b600067ffffffffffffffff821115613d7957613d7861414c565b5b602082029050602081019050919050565b600067ffffffffffffffff821115613da557613da461414c565b5b601f19601f8301169050602081019050919050565b6000819050602082019050919050565b6000819050602082019050919050565b6000819050602082019050919050565b6000819050602082019050919050565b6000819050602082019050919050565b6000819050602082019050919050565b600081519050919050565b600081519050919050565b600081519050919050565b600081519050919050565b600081519050919050565b600081519050919050565b600081519050919050565b6000602082019050919050565b6000602082019050919050565b6000602082019050919050565b6000602082019050919050565b6000602082019050919050565b6000602082019050919050565b600082825260208201905092915050565b600082825260208201905092915050565b600082825260208201905092915050565b600082825260208201905092915050565b600082825260208201905092915050565b600082825260208201905092915050565b600082825260208201905092915050565b600082825260208201905092915050565b600082825260208201905092915050565b600082825260208201905092915050565b6000613f6a82614027565b9150613f7583614027565b9250827fffffffffffffffffffffffffffffffffffffffffffffffffffffffffffffffff03821115613faa57613fa96140ee565b5b828201905092915050565b6000613fc082614027565b9150613fcb83614027565b925082821015613fde57613fdd6140ee565b5b828203905092915050565b6000613ff482614007565b9050919050565b60008115159050919050565b600073ffffffffffffffffffffffffffffffffffffffff82169050919050565b6000819050919050565b82818337600083830152505050565b60005b8381101561405e578082015181840152602081019050614043565b8381111561406d576000848401525b50505050565b6000600282049050600182168061408b57607f821691505b6020821081141561409f5761409e61411d565b5b50919050565b60006140b082614027565b91507fffffffffffffffffffffffffffffffffffffffffffffffffffffffffffffffff8214156140e3576140e26140ee565b5b600182019050919050565b7f4e487b7100000000000000000000000000000000000000000000000000000000600052601160045260246000fd5b7f4e487b7100000000000000000000000000000000000000000000000000000000600052602260045260246000fd5b7f4e487b7100000000000000000000000000000000000000000000000000000000600052604160045260246000fd5b6000601f19601f8301169050919050565b61419581613fe9565b81146141a057600080fd5b50565b6141ac81614027565b81146141b757600080fd5b5056fea2646970667358221220fbf3730866a4f9795a477611e8b3bbf1d4fa9eac639d31b46ecd975fbac9c72e64736f6c63430008000033",
    "immutableReferences": {},
    "source": "// SPDX-License-Identifier: MIT\r\npragma solidity ^0.8.0;\r\n\r\ncontract QuizPlatform {\r\n    struct Question {\r\n        string questionText;\r\n        string questionImg;\r\n        string[] options;\r\n        uint correctOption;\r\n    }\r\n\r\n    struct Reward {\r\n        string label;\r\n        uint value;\r\n    }\r\n\r\n    struct Quiz {\r\n        string title;\r\n        string description;\r\n        string imageUrl;\r\n        uint entranceFee;\r\n        uint pricePool;\r\n        uint timer;\r\n        Question[] questions;\r\n        Reward[] rewards;\r\n        address organizer;\r\n        bool isActive;\r\n        bool isEnded;\r\n        string visibility;\r\n    }\r\n\r\n    struct Participant {\r\n        uint numQuestionsPassed;\r\n        uint numQuestionsFailed;\r\n        uint points;\r\n        uint grade;\r\n        uint attempts;\r\n    }\r\n\r\n    Quiz[] public quizzes;\r\n    mapping(uint => mapping(address => Participant)) public quizParticipants;\r\n    mapping(uint => address[]) public quizParticipantAddresses; // Updated mapping to store unique participant addresses\r\n\r\n    event QuizCreated(uint indexed quizId, address indexed organizer, string title, string description, uint entranceFee, uint pricePool, uint timer, string visibility);\r\n    event ParticipantAdded(uint indexed quizId, address indexed participant);\r\n    event QuizClosed(uint indexed quizId);\r\n    event RewardsDistributed(uint indexed quizId, address[] participants, uint[] amounts);\r\n\r\n    function createQuiz(\r\n        string memory title,\r\n        string memory description,\r\n        string memory imageUrl,\r\n        uint entranceFee,\r\n        uint pricePool,\r\n        uint timer,\r\n        Question[] memory questions,\r\n        Reward[3] memory rewards,\r\n        string memory visibility\r\n    ) public payable {\r\n        require(msg.value == pricePool, \"Price pool must be paid in TFUEL\");\r\n\r\n        Quiz storage newQuiz = quizzes.push();\r\n        newQuiz.title = title;\r\n        newQuiz.description = description;\r\n        newQuiz.imageUrl = imageUrl;\r\n        newQuiz.entranceFee = entranceFee;\r\n        newQuiz.pricePool = pricePool;\r\n        newQuiz.timer = timer;\r\n        newQuiz.organizer = msg.sender;\r\n        newQuiz.isActive = true;\r\n        newQuiz.isEnded = false;\r\n        newQuiz.visibility = visibility;\r\n\r\n        for (uint i = 0; i < questions.length; i++) {\r\n            newQuiz.questions.push(Question({\r\n                questionText: questions[i].questionText,\r\n                questionImg: questions[i].questionImg,\r\n                options: questions[i].options,\r\n                correctOption: questions[i].correctOption\r\n            }));\r\n        }\r\n\r\n        for (uint j = 0; j < rewards.length; j++) {\r\n            newQuiz.rewards.push(rewards[j]);\r\n        }\r\n\r\n        emit QuizCreated(quizzes.length - 1, msg.sender, title, description, entranceFee, pricePool, timer, visibility);\r\n    }\r\n\r\n    function participateInQuiz(uint quizId) public payable {\r\n        Quiz storage quiz = quizzes[quizId];\r\n        require(msg.value == quiz.entranceFee, \"Incorrect entrance fee in TFUEL\");\r\n        require(quiz.isActive, \"Quiz is not active\");\r\n\r\n        Participant storage participant = quizParticipants[quizId][msg.sender];\r\n        if (participant.attempts == 0) {\r\n            quizParticipantAddresses[quizId].push(msg.sender); // Add participant address only if it's the first attempt\r\n        }\r\n        participant.attempts += 1;\r\n        emit ParticipantAdded(quizId, msg.sender);\r\n    }\r\n\r\n    function submitQuizResult(uint quizId, uint grade, uint numQuestionsFailed, uint numQuestionsPassed, uint points) public {\r\n        Quiz storage quiz = quizzes[quizId];\r\n        require(quizParticipants[quizId][msg.sender].attempts > 0, \"Not a participant\");\r\n        require(quiz.isActive, \"Quiz is not active\");\r\n\r\n        Participant storage participant = quizParticipants[quizId][msg.sender];\r\n        participant.grade = grade;\r\n        participant.numQuestionsFailed = numQuestionsFailed;\r\n        participant.numQuestionsPassed = numQuestionsPassed;\r\n        participant.points = points;\r\n\r\n        // Remove automatic reward calculation and transfer\r\n    }\r\n\r\n    function distributeRewards(uint quizId, address[] memory participants, uint[] memory amounts) public {\r\n        Quiz storage quiz = quizzes[quizId];\r\n        require(msg.sender == quiz.organizer, \"Only the organizer can distribute rewards\");\r\n        require(quiz.isActive, \"Quiz is not active\");\r\n        require(participants.length == amounts.length, \"Participants and amounts length mismatch\");\r\n\r\n        for (uint i = 0; i < participants.length; i++) {\r\n            require(quiz.pricePool >= amounts[i], \"Not enough funds in the prize pool\");\r\n            quiz.pricePool -= amounts[i];\r\n            payable(participants[i]).transfer(amounts[i]);\r\n        }\r\n\r\n        quiz.isActive = false;\r\n        quiz.isEnded = true;\r\n        emit RewardsDistributed(quizId, participants, amounts);\r\n        emit QuizClosed(quizId);\r\n    }\r\n\r\n    function getQuiz(uint quizId) public view returns (\r\n    string memory title,\r\n    string memory description,\r\n    string memory imageUrl,\r\n    uint entranceFee,\r\n    uint pricePool,\r\n    uint timer,\r\n    bool isActive,\r\n    bool isEnded,\r\n    Reward[] memory rewards\r\n) {\r\n    Quiz storage quiz = quizzes[quizId];\r\n    return (\r\n        quiz.title,\r\n        quiz.description,\r\n        quiz.imageUrl,\r\n        quiz.entranceFee,\r\n        quiz.pricePool,\r\n        quiz.timer,\r\n        quiz.isActive,\r\n        quiz.isEnded,\r\n        quiz.rewards\r\n    );\r\n}\r\n\r\n    function getQuizQuestions(uint quizId) public view returns (Question[] memory) {\r\n        Quiz storage quiz = quizzes[quizId];\r\n        return quiz.questions;\r\n    }\r\n\r\n    function getQuizzesCount() public view returns (uint) {\r\n        return quizzes.length;\r\n    }\r\n\r\n    function isParticipant(uint quizId, address participant) public view returns (bool) {\r\n        return quizParticipants[quizId][participant].attempts > 0;\r\n    }\r\n\r\n    function getParticipantDetails(uint quizId, address participant) public view returns (\r\n        uint numQuestionsPassed,\r\n        uint numQuestionsFailed,\r\n        uint points,\r\n        uint grade\r\n    ) {\r\n        Participant storage p = quizParticipants[quizId][participant];\r\n        return (p.numQuestionsPassed, p.numQuestionsFailed, p.points, p.grade);\r\n    }\r\n\r\n    function getQuizParticipants(uint quizId) public view returns (address[] memory) {\r\n        return quizParticipantAddresses[quizId];\r\n    }\r\n\r\n    function getQuizParticipantsCount(uint quizId) public view returns (uint) {\r\n        return quizParticipantAddresses[quizId].length;\r\n    }\r\n\r\n    function getQuizParticipant(uint quizId, uint index) public view returns (address) {\r\n        require(index < quizParticipantAddresses[quizId].length, \"Index out of bounds\");\r\n        return quizParticipantAddresses[quizId][index];\r\n    }\r\n\r\n    function getEndedQuizzesByParticipant(address participant) public view returns (Quiz[] memory) {\r\n        uint count = 0;\r\n        for (uint i = 0; i < quizzes.length; i++) {\r\n            if (quizzes[i].isEnded && quizParticipants[i][participant].attempts > 0) {\r\n                count++;\r\n            }\r\n        }\r\n\r\n        Quiz[] memory endedQuizzes = new Quiz[](count);\r\n        uint index = 0;\r\n        for (uint i = 0; i < quizzes.length; i++) {\r\n            if (quizzes[i].isEnded && quizParticipants[i][participant].attempts > 0) {\r\n                endedQuizzes[index] = quizzes[i];\r\n                index++;\r\n            }\r\n        }\r\n        return endedQuizzes;\r\n    }\r\n}\r\n",
    "sourcePath": "C:\\Users\\John PC\\Desktop\\hacks\\geniusmind\\genius\\contracts\\QuizPlatform.sol",
    "compiler": {
        "name": "solc",
        "version": "0.8.0+commit.c7dfd78e.Emscripten.clang"
    },
    "schemaVersion": "3.4.16",
    "updatedAt": "2024-07-09T13:48:55.995Z",
    "networkType": "ethereum",
    "devdoc": {
        "kind": "dev",
        "methods": {},
        "version": 1
    },
    "userdoc": {
        "kind": "user",
        "methods": {},
        "version": 1
    }
}