{
  "contractName": "WorkLobStaking",
  "abi": [
    {
      "inputs": [
        {
          "internalType": "contract IWorkLobERC20",
          "name": "_token",
          "type": "address"
        }
      ],
      "stateMutability": "nonpayable",
      "type": "constructor"
    },
    {
      "anonymous": false,
      "inputs": [
        {
          "indexed": true,
          "internalType": "address",
          "name": "previousOwner",
          "type": "address"
        },
        {
          "indexed": true,
          "internalType": "address",
          "name": "newOwner",
          "type": "address"
        }
      ],
      "name": "OwnershipTransferred",
      "type": "event"
    },
    {
      "anonymous": false,
      "inputs": [
        {
          "indexed": false,
          "internalType": "uint256",
          "name": "rewardAmount",
          "type": "uint256"
        },
        {
          "indexed": false,
          "internalType": "uint256",
          "name": "duration",
          "type": "uint256"
        }
      ],
      "name": "RewardAdded",
      "type": "event"
    },
    {
      "anonymous": false,
      "inputs": [
        {
          "indexed": true,
          "internalType": "address",
          "name": "user",
          "type": "address"
        },
        {
          "indexed": false,
          "internalType": "uint256",
          "name": "reward",
          "type": "uint256"
        }
      ],
      "name": "RewardPaid",
      "type": "event"
    },
    {
      "anonymous": false,
      "inputs": [
        {
          "indexed": true,
          "internalType": "address",
          "name": "user",
          "type": "address"
        },
        {
          "indexed": false,
          "internalType": "uint256",
          "name": "amount",
          "type": "uint256"
        }
      ],
      "name": "Staked",
      "type": "event"
    },
    {
      "anonymous": false,
      "inputs": [
        {
          "indexed": true,
          "internalType": "address",
          "name": "user",
          "type": "address"
        },
        {
          "indexed": false,
          "internalType": "uint256",
          "name": "amount",
          "type": "uint256"
        }
      ],
      "name": "Withdrawn",
      "type": "event"
    },
    {
      "inputs": [
        {
          "internalType": "address",
          "name": "",
          "type": "address"
        }
      ],
      "name": "balances",
      "outputs": [
        {
          "internalType": "uint256",
          "name": "",
          "type": "uint256"
        }
      ],
      "stateMutability": "view",
      "type": "function",
      "constant": true
    },
    {
      "inputs": [],
      "name": "lastUpdateTime",
      "outputs": [
        {
          "internalType": "uint256",
          "name": "",
          "type": "uint256"
        }
      ],
      "stateMutability": "view",
      "type": "function",
      "constant": true
    },
    {
      "inputs": [],
      "name": "owner",
      "outputs": [
        {
          "internalType": "address",
          "name": "",
          "type": "address"
        }
      ],
      "stateMutability": "view",
      "type": "function",
      "constant": true
    },
    {
      "inputs": [],
      "name": "periodFinish",
      "outputs": [
        {
          "internalType": "uint256",
          "name": "",
          "type": "uint256"
        }
      ],
      "stateMutability": "view",
      "type": "function",
      "constant": true
    },
    {
      "inputs": [],
      "name": "rewardPerTokenStored",
      "outputs": [
        {
          "internalType": "uint256",
          "name": "",
          "type": "uint256"
        }
      ],
      "stateMutability": "view",
      "type": "function",
      "constant": true
    },
    {
      "inputs": [],
      "name": "rewardRate",
      "outputs": [
        {
          "internalType": "uint256",
          "name": "",
          "type": "uint256"
        }
      ],
      "stateMutability": "view",
      "type": "function",
      "constant": true
    },
    {
      "inputs": [
        {
          "internalType": "address",
          "name": "",
          "type": "address"
        }
      ],
      "name": "rewards",
      "outputs": [
        {
          "internalType": "uint256",
          "name": "",
          "type": "uint256"
        }
      ],
      "stateMutability": "view",
      "type": "function",
      "constant": true
    },
    {
      "inputs": [],
      "name": "token",
      "outputs": [
        {
          "internalType": "contract IWorkLobERC20",
          "name": "",
          "type": "address"
        }
      ],
      "stateMutability": "view",
      "type": "function",
      "constant": true
    },
    {
      "inputs": [],
      "name": "totalStaked",
      "outputs": [
        {
          "internalType": "uint256",
          "name": "",
          "type": "uint256"
        }
      ],
      "stateMutability": "view",
      "type": "function",
      "constant": true
    },
    {
      "inputs": [
        {
          "internalType": "address",
          "name": "newOwner",
          "type": "address"
        }
      ],
      "name": "transferOwnership",
      "outputs": [],
      "stateMutability": "nonpayable",
      "type": "function"
    },
    {
      "inputs": [
        {
          "internalType": "address",
          "name": "",
          "type": "address"
        }
      ],
      "name": "userRewardPerTokenPaid",
      "outputs": [
        {
          "internalType": "uint256",
          "name": "",
          "type": "uint256"
        }
      ],
      "stateMutability": "view",
      "type": "function",
      "constant": true
    },
    {
      "inputs": [],
      "name": "lastTimeRewardApplicable",
      "outputs": [
        {
          "internalType": "uint256",
          "name": "",
          "type": "uint256"
        }
      ],
      "stateMutability": "view",
      "type": "function",
      "constant": true
    },
    {
      "inputs": [],
      "name": "rewardPerToken",
      "outputs": [
        {
          "internalType": "uint256",
          "name": "",
          "type": "uint256"
        }
      ],
      "stateMutability": "view",
      "type": "function",
      "constant": true
    },
    {
      "inputs": [
        {
          "internalType": "address",
          "name": "account",
          "type": "address"
        }
      ],
      "name": "earned",
      "outputs": [
        {
          "internalType": "uint256",
          "name": "",
          "type": "uint256"
        }
      ],
      "stateMutability": "view",
      "type": "function",
      "constant": true
    },
    {
      "inputs": [
        {
          "internalType": "uint256",
          "name": "amount",
          "type": "uint256"
        }
      ],
      "name": "stake",
      "outputs": [],
      "stateMutability": "nonpayable",
      "type": "function"
    },
    {
      "inputs": [
        {
          "internalType": "uint256",
          "name": "amount",
          "type": "uint256"
        }
      ],
      "name": "withdraw",
      "outputs": [],
      "stateMutability": "nonpayable",
      "type": "function"
    },
    {
      "inputs": [],
      "name": "getReward",
      "outputs": [],
      "stateMutability": "nonpayable",
      "type": "function"
    },
    {
      "inputs": [],
      "name": "exit",
      "outputs": [],
      "stateMutability": "nonpayable",
      "type": "function"
    },
    {
      "inputs": [],
      "name": "getAllStakers",
      "outputs": [
        {
          "internalType": "address[]",
          "name": "",
          "type": "address[]"
        },
        {
          "internalType": "uint256[]",
          "name": "",
          "type": "uint256[]"
        },
        {
          "internalType": "uint256[]",
          "name": "",
          "type": "uint256[]"
        },
        {
          "internalType": "uint256[]",
          "name": "",
          "type": "uint256[]"
        },
        {
          "internalType": "bool[]",
          "name": "",
          "type": "bool[]"
        }
      ],
      "stateMutability": "view",
      "type": "function",
      "constant": true
    },
    {
      "inputs": [
        {
          "internalType": "address",
          "name": "account",
          "type": "address"
        }
      ],
      "name": "getStakerDetails",
      "outputs": [
        {
          "internalType": "address",
          "name": "",
          "type": "address"
        },
        {
          "internalType": "uint256",
          "name": "",
          "type": "uint256"
        },
        {
          "internalType": "uint256",
          "name": "",
          "type": "uint256"
        },
        {
          "internalType": "uint256",
          "name": "",
          "type": "uint256"
        },
        {
          "internalType": "bool",
          "name": "",
          "type": "bool"
        }
      ],
      "stateMutability": "view",
      "type": "function",
      "constant": true
    },
    {
      "inputs": [
        {
          "internalType": "uint256",
          "name": "rewardAmount",
          "type": "uint256"
        },
        {
          "internalType": "uint256",
          "name": "duration",
          "type": "uint256"
        }
      ],
      "name": "notifyRewardAmount",
      "outputs": [],
      "stateMutability": "nonpayable",
      "type": "function"
    }
  ],
  "bytecode": "0x608060405234801561000f575f80fd5b5060405161123138038061123183398101604081905261002e91610060565b5f8054336001600160a01b031991821617909155600180549091166001600160a01b039290921691909117905561008d565b5f60208284031215610070575f80fd5b81516001600160a01b0381168114610086575f80fd5b9392505050565b6111978061009a5f395ff3fe608060405234801561000f575f80fd5b5060043610610131575f3560e01c80638b876347116100b4578063cd3daf9d11610079578063cd3daf9d146102a8578063df136d65146102b0578063e9fad8ee146102b9578063ebe2b12b146102c1578063f2fde38b146102ca578063fc0c546a146102dd575f80fd5b80638b876347146101fc5780638da5cb5b1461021b5780638fb80c7314610245578063a694fc3a1461028c578063c8f33c911461029f575f80fd5b80633d18b912116100fa5780633d18b912146101c15780636e4f88c8146101c95780637b0a47ee146101e257806380faa57d146101eb578063817b1cd2146101f3575f80fd5b80628cc262146101355780630700037d1461015b578063246132f91461017a57806327e235e31461018f5780632e1a7d4d146101ae575b5f80fd5b610148610143366004610f10565b6102f0565b6040519081526020015b60405180910390f35b610148610169366004610f10565b60096020525f908152604090205481565b61018d610188366004610f3d565b61036b565b005b61014861019d366004610f10565b60076020525f908152604090205481565b61018d6101bc366004610f5d565b610545565b61018d610713565b6101d161082f565b604051610152959493929190610fdd565b61014860025481565b610148610b23565b61014860065481565b61014861020a366004610f10565b60086020525f908152604090205481565b5f5461022d906001600160a01b031681565b6040516001600160a01b039091168152602001610152565b610258610253366004610f10565b610b3b565b604080516001600160a01b03909616865260208601949094529284019190915260608301521515608082015260a001610152565b61018d61029a366004610f5d565b610bb5565b61014860045481565b610148610d21565b61014860055481565b61018d610d80565b61014860035481565b61018d6102d8366004610f10565b610da2565b60015461022d906001600160a01b031681565b6001600160a01b0381165f908152600960209081526040808320546008909252822054670de0b6b3a764000090610325610d21565b61032f919061108f565b6001600160a01b0385165f9081526007602052604090205461035191906110a2565b61035b91906110b9565b61036591906110d8565b92915050565b5f546001600160a01b031633146103c95760405162461bcd60e51b815260206004820181905260248201527f4f776e61626c653a2063616c6c6572206973206e6f7420746865206f776e657260448201526064015b60405180910390fd5b6103d25f610eb5565b60035442106103ed576103e581836110b9565b60025561042a565b5f426003546103fc919061108f565b90505f6002548261040d91906110a2565b90508261041a82866110d8565b61042491906110b9565b60025550505b6001546040516370a0823160e01b81523060048201525f916001600160a01b0316906370a0823190602401602060405180830381865afa158015610470573d5f803e3d5ffd5b505050506040513d601f19601f8201168201806040525081019061049491906110eb565b905080826002546104a591906110a2565b11156104f35760405162461bcd60e51b815260206004820152601c60248201527f4e6f7420656e6f75676820746f6b656e7320666f72207265776172640000000060448201526064016103c0565b4260048190556105049083906110d8565b60035560408051848152602081018490527f6c07ee05dcf262f13abf9d87b846ee789d2f90fe991d495acd7d7fc109ee1f55910160405180910390a1505050565b5f81116105885760405162461bcd60e51b8152602060048201526011602482015270043616e6e6f74207769746864726177203607c1b60448201526064016103c0565b335f908152600760205260409020548111156105e65760405162461bcd60e51b815260206004820152601b60248201527f496e73756666696369656e74207374616b65642062616c616e6365000000000060448201526064016103c0565b6105ef33610eb5565b335f908152600760205260408120805483929061060d90849061108f565b925050819055508060065f828254610625919061108f565b909155505060015460405163a9059cbb60e01b8152336004820152602481018390526001600160a01b039091169063a9059cbb906044016020604051808303815f875af1158015610678573d5f803e3d5ffd5b505050506040513d601f19601f8201168201806040525081019061069c9190611102565b6106da5760405162461bcd60e51b815260206004820152600f60248201526e151c985b9cd9995c8819985a5b1959608a1b60448201526064016103c0565b60405181815233907f7084f5476618d8e60b11ef0d7d3f06914655adb8793e28ff7f018d4c76d505d5906020015b60405180910390a250565b61071c33610eb5565b335f90815260096020526040902054801561082c57335f8181526009602052604080822091909155600154905163a9059cbb60e01b81526004810192909252602482018390526001600160a01b03169063a9059cbb906044016020604051808303815f875af1158015610791573d5f803e3d5ffd5b505050506040513d601f19601f820116820180604052508101906107b59190611102565b6107fa5760405162461bcd60e51b815260206004820152601660248201527514995dd85c99081d1c985b9cd9995c8819985a5b195960521b60448201526064016103c0565b60405181815233907fe2403640ba68fed3a2f88b7557551d1993f84b99bb10ff833f0cf8db0c5e048690602001610708565b50565b60608060608060605f60065467ffffffffffffffff81111561085357610853611121565b60405190808252806020026020018201604052801561087c578160200160208202803683370190505b5090505f60065467ffffffffffffffff81111561089b5761089b611121565b6040519080825280602002602001820160405280156108c4578160200160208202803683370190505b5090505f60065467ffffffffffffffff8111156108e3576108e3611121565b60405190808252806020026020018201604052801561090c578160200160208202803683370190505b5090505f60065467ffffffffffffffff81111561092b5761092b611121565b604051908082528060200260200182016040528015610954578160200160208202803683370190505b5090505f60065467ffffffffffffffff81111561097357610973611121565b60405190808252806020026020018201604052801561099c578160200160208202803683370190505b5090505f805b600654811015610b11575f8782815181106109bf576109bf611135565b60200260200101519050808884815181106109dc576109dc611135565b60200260200101906001600160a01b031690816001600160a01b03168152505060075f826001600160a01b03166001600160a01b031681526020019081526020015f2054878481518110610a3257610a32611135565b602002602001018181525050610a47816102f0565b868481518110610a5957610a59611135565b6020908102919091018101919091526001600160a01b0382165f90815260089091526040902054610a8a904261108f565b858481518110610a9c57610a9c611135565b6020026020010181815250505f60075f836001600160a01b03166001600160a01b031681526020019081526020015f205411848481518110610ae057610ae0611135565b9115156020928302919091019091015282610afa81611149565b935050508080610b0990611149565b9150506109a2565b50949a93995091975095509350915050565b5f6003544210610b34575060035490565b425b905090565b6001600160a01b0381165f9081526007602052604081205481908190819081908690610b66826102f0565b6001600160a01b0389165f90815260086020526040902054610b88904261108f565b6001600160a01b03999099165f908152600760205260409020549299919890975095509015159350915050565b5f8111610bf55760405162461bcd60e51b815260206004820152600e60248201526d043616e6e6f74207374616b6520360941b60448201526064016103c0565b610bfe33610eb5565b6001546040516323b872dd60e01b8152336004820152306024820152604481018390526001600160a01b03909116906323b872dd906064016020604051808303815f875af1158015610c52573d5f803e3d5ffd5b505050506040513d601f19601f82011682018060405250810190610c769190611102565b610cb45760405162461bcd60e51b815260206004820152600f60248201526e151c985b9cd9995c8819985a5b1959608a1b60448201526064016103c0565b335f9081526007602052604081208054839290610cd29084906110d8565b925050819055508060065f828254610cea91906110d8565b909155505060405181815233907f9e71bc8eea02a63969f509818f2dafb9254532904319f9dbda79b67bd34a5f3d90602001610708565b5f6006545f03610d32575060055490565b600654600254600454610d43610b23565b610d4d919061108f565b610d5791906110a2565b610d6990670de0b6b3a76400006110a2565b610d7391906110b9565b600554610b3691906110d8565b335f90815260076020526040902054610d9890610545565b610da0610713565b565b5f546001600160a01b03163314610dfb5760405162461bcd60e51b815260206004820181905260248201527f4f776e61626c653a2063616c6c6572206973206e6f7420746865206f776e657260448201526064016103c0565b6001600160a01b038116610e5c5760405162461bcd60e51b815260206004820152602260248201527f4f776e61626c653a206e6577206f776e6572206973207a65726f206164647265604482015261737360f01b60648201526084016103c0565b5f80546040516001600160a01b03808516939216917f8be0079c531659141344cd1fd0a4f28419497f9722a3daafe3b4186f6b6457e091a35f80546001600160a01b0319166001600160a01b0392909216919091179055565b610ebd610d21565b600555610ec8610b23565b6004556001600160a01b0381161561082c57610ee3816102f0565b6001600160a01b0382165f9081526009602090815260408083209390935560055460089091529190205550565b5f60208284031215610f20575f80fd5b81356001600160a01b0381168114610f36575f80fd5b9392505050565b5f8060408385031215610f4e575f80fd5b50508035926020909101359150565b5f60208284031215610f6d575f80fd5b5035919050565b5f8151808452602080850194508084015f5b83811015610fa257815187529582019590820190600101610f86565b509495945050505050565b5f8151808452602080850194508084015f5b83811015610fa2578151151587529582019590820190600101610fbf565b60a080825286519082018190525f9060209060c0840190828a01845b8281101561101e5781516001600160a01b031684529284019290840190600101610ff9565b505050838103828501526110328189610f74565b91505082810360408401526110478187610f74565b9050828103606084015261105b8186610f74565b9050828103608084015261106f8185610fad565b98975050505050505050565b634e487b7160e01b5f52601160045260245ffd5b818103818111156103655761036561107b565b80820281158282048414176103655761036561107b565b5f826110d357634e487b7160e01b5f52601260045260245ffd5b500490565b808201808211156103655761036561107b565b5f602082840312156110fb575f80fd5b5051919050565b5f60208284031215611112575f80fd5b81518015158114610f36575f80fd5b634e487b7160e01b5f52604160045260245ffd5b634e487b7160e01b5f52603260045260245ffd5b5f6001820161115a5761115a61107b565b506001019056fea2646970667358221220d936df1d8d2fc9428757146b0ee2aa7ebe59bb784e3cd48764f94d9782edc93964736f6c63430008140033",
  "immutableReferences": {},
  "source": "// SPDX-License-Identifier: MIT\r\npragma solidity ^0.8.0;\r\n\r\n/**\r\n * @title IWorkLobERC20\r\n * @dev Simplified ERC20 interface.\r\n */\r\ninterface IWorkLobERC20 {\r\n    function totalSupply() external view returns (uint256);\r\n    function balanceOf(address account) external view returns (uint256);\r\n    function transfer(address recipient, uint256 amount) external returns (bool);\r\n    function allowance(address owner, address spender) external view returns (uint256);\r\n    function approve(address spender, uint256 amount) external returns (bool);\r\n    function transferFrom(\r\n        address sender,\r\n        address recipient,\r\n        uint256 amount\r\n    ) external returns (bool);\r\n}\r\n\r\n/**\r\n * @title Ownable\r\n * @dev Basic access control mechanism with an owner.\r\n */\r\ncontract Ownable {\r\n    address public owner;\r\n    \r\n    event OwnershipTransferred(address indexed previousOwner, address indexed newOwner);\r\n    \r\n    constructor() {\r\n        owner = msg.sender;\r\n    }\r\n    \r\n    modifier onlyOwner() {\r\n        require(msg.sender == owner, \"Ownable: caller is not the owner\");\r\n        _;\r\n    }\r\n    \r\n    function transferOwnership(address newOwner) public onlyOwner {\r\n        require(newOwner != address(0), \"Ownable: new owner is zero address\");\r\n        emit OwnershipTransferred(owner, newOwner);\r\n        owner = newOwner;\r\n    }\r\n}\r\n\r\n/**\r\n * @title WorkLobStaking\r\n * @dev A staking contract where users can stake tokens to earn rewards.\r\n */\r\ncontract WorkLobStaking is Ownable {\r\n    IWorkLobERC20 public token;\r\n\r\n    // Reward parameters\r\n    uint256 public rewardRate;           // Reward tokens distributed per second.\r\n    uint256 public periodFinish;         // Timestamp when the current reward period ends.\r\n    uint256 public lastUpdateTime;       // Last timestamp that rewards were updated.\r\n    uint256 public rewardPerTokenStored; // Accumulated reward per staked token (scaled by 1e18).\r\n\r\n    // Total tokens staked by all users.\r\n    uint256 public totalStaked;\r\n\r\n    // User-specific data\r\n    mapping(address => uint256) public balances;               // Amount staked per user.\r\n    mapping(address => uint256) public userRewardPerTokenPaid;   // User's snapshot of rewardPerTokenStored.\r\n    mapping(address => uint256) public rewards;                  // Accumulated (but not yet claimed) rewards.\r\n\r\n    // Events to log key actions\r\n    event Staked(address indexed user, uint256 amount);\r\n    event Withdrawn(address indexed user, uint256 amount);\r\n    event RewardPaid(address indexed user, uint256 reward);\r\n    event RewardAdded(uint256 rewardAmount, uint256 duration);\r\n\r\n    /**\r\n     * @dev Constructor sets the ERC20 token used for staking and rewards.\r\n     * @param _token The ERC20 token address.\r\n     */\r\n    constructor(IWorkLobERC20 _token) {\r\n        token = _token;\r\n    }\r\n\r\n    /**\r\n     * @dev Returns the last time reward was applicable (current time or period finish, whichever is lower).\r\n     */\r\n    function lastTimeRewardApplicable() public view returns (uint256) {\r\n        return block.timestamp < periodFinish ? block.timestamp : periodFinish;\r\n    }\r\n\r\n    /**\r\n     * @dev Calculates the current reward per token accumulated.\r\n     */\r\n    function rewardPerToken() public view returns (uint256) {\r\n        if (totalStaked == 0) {\r\n            return rewardPerTokenStored;\r\n        }\r\n        return\r\n            rewardPerTokenStored +\r\n            (((lastTimeRewardApplicable() - lastUpdateTime) * rewardRate * 1e18) / totalStaked);\r\n    }\r\n\r\n    /**\r\n     * @dev Returns the total rewards earned by an account.\r\n     * @param account The address of the staker.\r\n     */\r\n    function earned(address account) public view returns (uint256) {\r\n        return ((balances[account] * (rewardPerToken() - userRewardPerTokenPaid[account])) / 1e18) + rewards[account];\r\n    }\r\n\r\n    /**\r\n     * @dev Updates the reward variables for an account.\r\n     * @param account The address to update rewards for.\r\n     */\r\n    function updateReward(address account) internal {\r\n        rewardPerTokenStored = rewardPerToken();\r\n        lastUpdateTime = lastTimeRewardApplicable();\r\n        if (account != address(0)) {\r\n            rewards[account] = earned(account);\r\n            userRewardPerTokenPaid[account] = rewardPerTokenStored;\r\n        }\r\n    }\r\n\r\n    /**\r\n     * @dev Stake a specific amount of tokens.\r\n     * @param amount The number of tokens to stake.\r\n     */\r\n    function stake(uint256 amount) external {\r\n        require(amount > 0, \"Cannot stake 0\");\r\n        updateReward(msg.sender);\r\n        // Transfer tokens from user to this contract.\r\n        require(token.transferFrom(msg.sender, address(this), amount), \"Transfer failed\");\r\n        balances[msg.sender] += amount;\r\n        totalStaked += amount;\r\n        emit Staked(msg.sender, amount);\r\n    }\r\n\r\n    /**\r\n     * @dev Withdraw staked tokens.\r\n     * @param amount The number of tokens to withdraw.\r\n     */\r\n    function withdraw(uint256 amount) public {\r\n        require(amount > 0, \"Cannot withdraw 0\");\r\n        require(balances[msg.sender] >= amount, \"Insufficient staked balance\");\r\n        updateReward(msg.sender);\r\n        balances[msg.sender] -= amount;\r\n        totalStaked -= amount;\r\n        require(token.transfer(msg.sender, amount), \"Transfer failed\");\r\n        emit Withdrawn(msg.sender, amount);\r\n    }\r\n\r\n    /**\r\n     * @dev Claim accumulated reward tokens.\r\n     */\r\n    function getReward() public {\r\n        updateReward(msg.sender);\r\n        uint256 reward = rewards[msg.sender];\r\n        if (reward > 0) {\r\n            rewards[msg.sender] = 0;\r\n            require(token.transfer(msg.sender, reward), \"Reward transfer failed\");\r\n            emit RewardPaid(msg.sender, reward);\r\n        }\r\n    }\r\n\r\n    /**\r\n     * @dev Withdraw staked tokens and claim rewards.\r\n     */\r\n    function exit() external {\r\n        withdraw(balances[msg.sender]);\r\n        getReward();\r\n    }\r\n\r\n    /**\r\n * @dev Returns the list of all stakers with their details.\r\n */\r\nfunction getAllStakers() public view returns (address[] memory, uint256[] memory, uint256[] memory, uint256[] memory, bool[] memory) {\r\n    address[] memory stakerAddresses = new address[](totalStaked);\r\n    uint256[] memory stakedAmounts = new uint256[](totalStaked);\r\n    uint256[] memory rewardsEarned = new uint256[](totalStaked);\r\n    uint256[] memory durations = new uint256[](totalStaked);\r\n    bool[] memory statuses = new bool[](totalStaked);\r\n\r\n    uint256 index = 0;\r\n    for (uint256 i = 0; i < totalStaked; i++) {\r\n        address staker = stakerAddresses[i];\r\n        stakerAddresses[index] = staker;\r\n        stakedAmounts[index] = balances[staker];\r\n        rewardsEarned[index] = earned(staker);\r\n        durations[index] = block.timestamp - userRewardPerTokenPaid[staker];\r\n        statuses[index] = balances[staker] > 0;\r\n        index++;\r\n    }\r\n    return (stakerAddresses, stakedAmounts, rewardsEarned, durations, statuses);\r\n}\r\n\r\n/**\r\n * @dev Returns the details of the specific connected address (user).\r\n */\r\nfunction getStakerDetails(address account) public view returns (address, uint256, uint256, uint256, bool) {\r\n    return (\r\n        account,\r\n        balances[account],\r\n        earned(account),\r\n        block.timestamp - userRewardPerTokenPaid[account],\r\n        balances[account] > 0\r\n    );\r\n}\r\n\r\n\r\n    /**\r\n     * @dev Owner-funded reward deposit.\r\n     * The owner (platform treasury) can deposit reward tokens to fund the reward pool.\r\n     * If the current reward period is still active, any leftover rewards are added.\r\n     * @param rewardAmount The total reward tokens to be distributed.\r\n     * @param duration The duration (in seconds) over which to distribute the rewards.\r\n     */\r\n    function notifyRewardAmount(uint256 rewardAmount, uint256 duration) external onlyOwner {\r\n        // Update reward variables before modifying reward parameters.\r\n        updateReward(address(0));\r\n\r\n        // If the previous reward period is still running, add any leftover rewards.\r\n        if (block.timestamp >= periodFinish) {\r\n            rewardRate = rewardAmount / duration;\r\n        } else {\r\n            uint256 remaining = periodFinish - block.timestamp;\r\n            uint256 leftover = remaining * rewardRate;\r\n            rewardRate = (rewardAmount + leftover) / duration;\r\n        }\r\n\r\n        // Ensure the contract has enough tokens to cover the new rewards.\r\n        uint256 availableBalance = token.balanceOf(address(this));\r\n        require(rewardRate * duration <= availableBalance, \"Not enough tokens for reward\");\r\n\r\n        lastUpdateTime = block.timestamp;\r\n        periodFinish = block.timestamp + duration;\r\n        emit RewardAdded(rewardAmount, duration);\r\n    }\r\n}\r\n",
  "sourcePath": "C:\\Users\\John PC\\Desktop\\startups\\worklob\\smart-contract\\contracts\\WorkLobStaking.sol",
  "compiler": {
    "name": "solc",
    "version": "0.8.20+commit.a1b79de6.Emscripten.clang"
  },
  "schemaVersion": "3.4.16",
  "updatedAt": "2025-02-22T10:15:08.351Z",
  "networkType": "ethereum",
  "devdoc": {
    "details": "A staking contract where users can stake tokens to earn rewards.",
    "kind": "dev",
    "methods": {
      "constructor": {
        "details": "Constructor sets the ERC20 token used for staking and rewards.",
        "params": {
          "_token": "The ERC20 token address."
        }
      },
      "earned(address)": {
        "details": "Returns the total rewards earned by an account.",
        "params": {
          "account": "The address of the staker."
        }
      },
      "exit()": {
        "details": "Withdraw staked tokens and claim rewards."
      },
      "getAllStakers()": {
        "details": "Returns the list of all stakers with their details."
      },
      "getReward()": {
        "details": "Claim accumulated reward tokens."
      },
      "getStakerDetails(address)": {
        "details": "Returns the details of the specific connected address (user)."
      },
      "lastTimeRewardApplicable()": {
        "details": "Returns the last time reward was applicable (current time or period finish, whichever is lower)."
      },
      "notifyRewardAmount(uint256,uint256)": {
        "details": "Owner-funded reward deposit. The owner (platform treasury) can deposit reward tokens to fund the reward pool. If the current reward period is still active, any leftover rewards are added.",
        "params": {
          "duration": "The duration (in seconds) over which to distribute the rewards.",
          "rewardAmount": "The total reward tokens to be distributed."
        }
      },
      "rewardPerToken()": {
        "details": "Calculates the current reward per token accumulated."
      },
      "stake(uint256)": {
        "details": "Stake a specific amount of tokens.",
        "params": {
          "amount": "The number of tokens to stake."
        }
      },
      "withdraw(uint256)": {
        "details": "Withdraw staked tokens.",
        "params": {
          "amount": "The number of tokens to withdraw."
        }
      }
    },
    "title": "WorkLobStaking",
    "version": 1
  },
  "userdoc": {
    "kind": "user",
    "methods": {},
    "version": 1
  }
}