{
  "contractName": "WorkLobStaking",
  "abi": [
    {
      "inputs": [
        {
          "internalType": "contract IWorkLobERC20",
          "name": "_token",
          "type": "address"
        }
      ],
      "stateMutability": "nonpayable",
      "type": "constructor"
    },
    {
      "anonymous": false,
      "inputs": [
        {
          "indexed": true,
          "internalType": "address",
          "name": "previousOwner",
          "type": "address"
        },
        {
          "indexed": true,
          "internalType": "address",
          "name": "newOwner",
          "type": "address"
        }
      ],
      "name": "OwnershipTransferred",
      "type": "event"
    },
    {
      "anonymous": false,
      "inputs": [
        {
          "indexed": false,
          "internalType": "uint256",
          "name": "rewardAmount",
          "type": "uint256"
        },
        {
          "indexed": false,
          "internalType": "uint256",
          "name": "duration",
          "type": "uint256"
        }
      ],
      "name": "RewardAdded",
      "type": "event"
    },
    {
      "anonymous": false,
      "inputs": [
        {
          "indexed": true,
          "internalType": "address",
          "name": "user",
          "type": "address"
        },
        {
          "indexed": false,
          "internalType": "uint256",
          "name": "reward",
          "type": "uint256"
        }
      ],
      "name": "RewardPaid",
      "type": "event"
    },
    {
      "anonymous": false,
      "inputs": [
        {
          "indexed": true,
          "internalType": "address",
          "name": "user",
          "type": "address"
        },
        {
          "indexed": false,
          "internalType": "uint256",
          "name": "amount",
          "type": "uint256"
        }
      ],
      "name": "Staked",
      "type": "event"
    },
    {
      "anonymous": false,
      "inputs": [
        {
          "indexed": true,
          "internalType": "address",
          "name": "user",
          "type": "address"
        },
        {
          "indexed": false,
          "internalType": "uint256",
          "name": "amount",
          "type": "uint256"
        }
      ],
      "name": "Withdrawn",
      "type": "event"
    },
    {
      "inputs": [
        {
          "internalType": "address",
          "name": "",
          "type": "address"
        }
      ],
      "name": "balances",
      "outputs": [
        {
          "internalType": "uint256",
          "name": "",
          "type": "uint256"
        }
      ],
      "stateMutability": "view",
      "type": "function",
      "constant": true
    },
    {
      "inputs": [
        {
          "internalType": "address",
          "name": "",
          "type": "address"
        }
      ],
      "name": "hasStaked",
      "outputs": [
        {
          "internalType": "bool",
          "name": "",
          "type": "bool"
        }
      ],
      "stateMutability": "view",
      "type": "function",
      "constant": true
    },
    {
      "inputs": [],
      "name": "lastUpdateTime",
      "outputs": [
        {
          "internalType": "uint256",
          "name": "",
          "type": "uint256"
        }
      ],
      "stateMutability": "view",
      "type": "function",
      "constant": true
    },
    {
      "inputs": [],
      "name": "owner",
      "outputs": [
        {
          "internalType": "address",
          "name": "",
          "type": "address"
        }
      ],
      "stateMutability": "view",
      "type": "function",
      "constant": true
    },
    {
      "inputs": [],
      "name": "periodFinish",
      "outputs": [
        {
          "internalType": "uint256",
          "name": "",
          "type": "uint256"
        }
      ],
      "stateMutability": "view",
      "type": "function",
      "constant": true
    },
    {
      "inputs": [],
      "name": "rewardPerTokenStored",
      "outputs": [
        {
          "internalType": "uint256",
          "name": "",
          "type": "uint256"
        }
      ],
      "stateMutability": "view",
      "type": "function",
      "constant": true
    },
    {
      "inputs": [],
      "name": "rewardRate",
      "outputs": [
        {
          "internalType": "uint256",
          "name": "",
          "type": "uint256"
        }
      ],
      "stateMutability": "view",
      "type": "function",
      "constant": true
    },
    {
      "inputs": [
        {
          "internalType": "address",
          "name": "",
          "type": "address"
        }
      ],
      "name": "rewards",
      "outputs": [
        {
          "internalType": "uint256",
          "name": "",
          "type": "uint256"
        }
      ],
      "stateMutability": "view",
      "type": "function",
      "constant": true
    },
    {
      "inputs": [
        {
          "internalType": "uint256",
          "name": "",
          "type": "uint256"
        }
      ],
      "name": "stakers",
      "outputs": [
        {
          "internalType": "address",
          "name": "",
          "type": "address"
        }
      ],
      "stateMutability": "view",
      "type": "function",
      "constant": true
    },
    {
      "inputs": [],
      "name": "token",
      "outputs": [
        {
          "internalType": "contract IWorkLobERC20",
          "name": "",
          "type": "address"
        }
      ],
      "stateMutability": "view",
      "type": "function",
      "constant": true
    },
    {
      "inputs": [],
      "name": "totalStaked",
      "outputs": [
        {
          "internalType": "uint256",
          "name": "",
          "type": "uint256"
        }
      ],
      "stateMutability": "view",
      "type": "function",
      "constant": true
    },
    {
      "inputs": [
        {
          "internalType": "address",
          "name": "newOwner",
          "type": "address"
        }
      ],
      "name": "transferOwnership",
      "outputs": [],
      "stateMutability": "nonpayable",
      "type": "function"
    },
    {
      "inputs": [
        {
          "internalType": "address",
          "name": "",
          "type": "address"
        }
      ],
      "name": "userRewardPerTokenPaid",
      "outputs": [
        {
          "internalType": "uint256",
          "name": "",
          "type": "uint256"
        }
      ],
      "stateMutability": "view",
      "type": "function",
      "constant": true
    },
    {
      "inputs": [],
      "name": "lastTimeRewardApplicable",
      "outputs": [
        {
          "internalType": "uint256",
          "name": "",
          "type": "uint256"
        }
      ],
      "stateMutability": "view",
      "type": "function",
      "constant": true
    },
    {
      "inputs": [],
      "name": "rewardPerToken",
      "outputs": [
        {
          "internalType": "uint256",
          "name": "",
          "type": "uint256"
        }
      ],
      "stateMutability": "view",
      "type": "function",
      "constant": true
    },
    {
      "inputs": [
        {
          "internalType": "address",
          "name": "account",
          "type": "address"
        }
      ],
      "name": "earned",
      "outputs": [
        {
          "internalType": "uint256",
          "name": "",
          "type": "uint256"
        }
      ],
      "stateMutability": "view",
      "type": "function",
      "constant": true
    },
    {
      "inputs": [
        {
          "internalType": "uint256",
          "name": "amount",
          "type": "uint256"
        }
      ],
      "name": "stake",
      "outputs": [],
      "stateMutability": "nonpayable",
      "type": "function"
    },
    {
      "inputs": [
        {
          "internalType": "uint256",
          "name": "amount",
          "type": "uint256"
        }
      ],
      "name": "withdraw",
      "outputs": [],
      "stateMutability": "nonpayable",
      "type": "function"
    },
    {
      "inputs": [],
      "name": "getReward",
      "outputs": [],
      "stateMutability": "nonpayable",
      "type": "function"
    },
    {
      "inputs": [],
      "name": "exit",
      "outputs": [],
      "stateMutability": "nonpayable",
      "type": "function"
    },
    {
      "inputs": [],
      "name": "getAllStakers",
      "outputs": [
        {
          "internalType": "address[]",
          "name": "",
          "type": "address[]"
        },
        {
          "internalType": "uint256[]",
          "name": "",
          "type": "uint256[]"
        },
        {
          "internalType": "uint256[]",
          "name": "",
          "type": "uint256[]"
        },
        {
          "internalType": "uint256[]",
          "name": "",
          "type": "uint256[]"
        },
        {
          "internalType": "bool[]",
          "name": "",
          "type": "bool[]"
        }
      ],
      "stateMutability": "view",
      "type": "function",
      "constant": true
    },
    {
      "inputs": [
        {
          "internalType": "address",
          "name": "account",
          "type": "address"
        }
      ],
      "name": "getStakerDetails",
      "outputs": [
        {
          "internalType": "address",
          "name": "",
          "type": "address"
        },
        {
          "internalType": "uint256",
          "name": "",
          "type": "uint256"
        },
        {
          "internalType": "uint256",
          "name": "",
          "type": "uint256"
        },
        {
          "internalType": "uint256",
          "name": "",
          "type": "uint256"
        },
        {
          "internalType": "bool",
          "name": "",
          "type": "bool"
        }
      ],
      "stateMutability": "view",
      "type": "function",
      "constant": true
    },
    {
      "inputs": [
        {
          "internalType": "uint256",
          "name": "rewardAmount",
          "type": "uint256"
        },
        {
          "internalType": "uint256",
          "name": "duration",
          "type": "uint256"
        }
      ],
      "name": "notifyRewardAmount",
      "outputs": [],
      "stateMutability": "nonpayable",
      "type": "function"
    }
  ],
  "bytecode": "0x608060405234801561000f575f80fd5b506040516113ad3803806113ad83398101604081905261002e91610060565b5f8054336001600160a01b031991821617909155600180549091166001600160a01b039290921691909117905561008d565b5f60208284031215610070575f80fd5b81516001600160a01b0381168114610086575f80fd5b9392505050565b6113138061009a5f395ff3fe608060405234801561000f575f80fd5b5060043610610147575f3560e01c80638da5cb5b116100bf578063df136d6511610079578063df136d65146102f8578063e9fad8ee14610301578063ebe2b12b14610309578063f2fde38b14610312578063fc0c546a14610325578063fd5e6dd114610338575f80fd5b80638da5cb5b146102315780638fb80c731461025b578063a694fc3a146102a2578063c8f33c91146102b5578063c93c8f34146102be578063cd3daf9d146102f0575f80fd5b80633d18b912116101105780633d18b912146101d75780636e4f88c8146101df5780637b0a47ee146101f857806380faa57d14610201578063817b1cd2146102095780638b87634714610212575f80fd5b80628cc2621461014b5780630700037d14610171578063246132f91461019057806327e235e3146101a55780632e1a7d4d146101c4575b5f80fd5b61015e61015936600461108c565b61034b565b6040519081526020015b60405180910390f35b61015e61017f36600461108c565b60096020525f908152604090205481565b6101a361019e3660046110b9565b6103c6565b005b61015e6101b336600461108c565b60076020525f908152604090205481565b6101a36101d23660046110d9565b6105a0565b6101a361076e565b6101e761088a565b604051610168959493929190611159565b61015e60025481565b61015e610c07565b61015e60065481565b61015e61022036600461108c565b60086020525f908152604090205481565b5f54610243906001600160a01b031681565b6040516001600160a01b039091168152602001610168565b61026e61026936600461108c565b610c1f565b604080516001600160a01b03909616865260208601949094529284019190915260608301521515608082015260a001610168565b6101a36102b03660046110d9565b610c99565b61015e60045481565b6102e06102cc36600461108c565b600b6020525f908152604090205460ff1681565b6040519015158152602001610168565b61015e610e75565b61015e60055481565b6101a3610ed4565b61015e60035481565b6101a361032036600461108c565b610ef6565b600154610243906001600160a01b031681565b6102436103463660046110d9565b611009565b6001600160a01b0381165f908152600960209081526040808320546008909252822054670de0b6b3a764000090610380610e75565b61038a919061120b565b6001600160a01b0385165f908152600760205260409020546103ac919061121e565b6103b69190611235565b6103c09190611254565b92915050565b5f546001600160a01b031633146104245760405162461bcd60e51b815260206004820181905260248201527f4f776e61626c653a2063616c6c6572206973206e6f7420746865206f776e657260448201526064015b60405180910390fd5b61042d5f611031565b6003544210610448576104408183611235565b600255610485565b5f42600354610457919061120b565b90505f60025482610468919061121e565b9050826104758286611254565b61047f9190611235565b60025550505b6001546040516370a0823160e01b81523060048201525f916001600160a01b0316906370a0823190602401602060405180830381865afa1580156104cb573d5f803e3d5ffd5b505050506040513d601f19601f820116820180604052508101906104ef9190611267565b90508082600254610500919061121e565b111561054e5760405162461bcd60e51b815260206004820152601c60248201527f4e6f7420656e6f75676820746f6b656e7320666f722072657761726400000000604482015260640161041b565b42600481905561055f908390611254565b60035560408051848152602081018490527f6c07ee05dcf262f13abf9d87b846ee789d2f90fe991d495acd7d7fc109ee1f55910160405180910390a1505050565b5f81116105e35760405162461bcd60e51b8152602060048201526011602482015270043616e6e6f74207769746864726177203607c1b604482015260640161041b565b335f908152600760205260409020548111156106415760405162461bcd60e51b815260206004820152601b60248201527f496e73756666696369656e74207374616b65642062616c616e63650000000000604482015260640161041b565b61064a33611031565b335f908152600760205260408120805483929061066890849061120b565b925050819055508060065f828254610680919061120b565b909155505060015460405163a9059cbb60e01b8152336004820152602481018390526001600160a01b039091169063a9059cbb906044016020604051808303815f875af11580156106d3573d5f803e3d5ffd5b505050506040513d601f19601f820116820180604052508101906106f7919061127e565b6107355760405162461bcd60e51b815260206004820152600f60248201526e151c985b9cd9995c8819985a5b1959608a1b604482015260640161041b565b60405181815233907f7084f5476618d8e60b11ef0d7d3f06914655adb8793e28ff7f018d4c76d505d5906020015b60405180910390a250565b61077733611031565b335f90815260096020526040902054801561088757335f8181526009602052604080822091909155600154905163a9059cbb60e01b81526004810192909252602482018390526001600160a01b03169063a9059cbb906044016020604051808303815f875af11580156107ec573d5f803e3d5ffd5b505050506040513d601f19601f82011682018060405250810190610810919061127e565b6108555760405162461bcd60e51b815260206004820152601660248201527514995dd85c99081d1c985b9cd9995c8819985a5b195960521b604482015260640161041b565b60405181815233907fe2403640ba68fed3a2f88b7557551d1993f84b99bb10ff833f0cf8db0c5e048690602001610763565b50565b60608060608060605f805b600a54811015610900575f60075f600a84815481106108b6576108b661129d565b5f9182526020808320909101546001600160a01b0316835282019290925260400190205411156108ee57816108ea816112b1565b9250505b806108f8816112b1565b915050610895565b505f8167ffffffffffffffff81111561091b5761091b6112c9565b604051908082528060200260200182016040528015610944578160200160208202803683370190505b5090505f8267ffffffffffffffff811115610961576109616112c9565b60405190808252806020026020018201604052801561098a578160200160208202803683370190505b5090505f8367ffffffffffffffff8111156109a7576109a76112c9565b6040519080825280602002602001820160405280156109d0578160200160208202803683370190505b5090505f8467ffffffffffffffff8111156109ed576109ed6112c9565b604051908082528060200260200182016040528015610a16578160200160208202803683370190505b5090505f8567ffffffffffffffff811115610a3357610a336112c9565b604051908082528060200260200182016040528015610a5c578160200160208202803683370190505b5090505f805b600a54811015610bf4575f600a8281548110610a8057610a8061129d565b5f9182526020808320909101546001600160a01b0316808352600790915260409091205490915015610be15780888481518110610abf57610abf61129d565b60200260200101906001600160a01b031690816001600160a01b03168152505060075f826001600160a01b03166001600160a01b031681526020019081526020015f2054878481518110610b1557610b1561129d565b602002602001018181525050610b2a8161034b565b868481518110610b3c57610b3c61129d565b6020908102919091018101919091526001600160a01b0382165f90815260089091526040902054610b6d904261120b565b858481518110610b7f57610b7f61129d565b6020026020010181815250505f60075f836001600160a01b03166001600160a01b031681526020019081526020015f205411848481518110610bc357610bc361129d565b9115156020928302919091019091015282610bdd816112b1565b9350505b5080610bec816112b1565b915050610a62565b50949b939a509198509650945092505050565b5f6003544210610c18575060035490565b425b905090565b6001600160a01b0381165f9081526007602052604081205481908190819081908690610c4a8261034b565b6001600160a01b0389165f90815260086020526040902054610c6c904261120b565b6001600160a01b03999099165f908152600760205260409020549299919890975095509015159350915050565b5f8111610cd95760405162461bcd60e51b815260206004820152600e60248201526d043616e6e6f74207374616b6520360941b604482015260640161041b565b610ce233611031565b6001546040516323b872dd60e01b8152336004820152306024820152604481018390526001600160a01b03909116906323b872dd906064016020604051808303815f875af1158015610d36573d5f803e3d5ffd5b505050506040513d601f19601f82011682018060405250810190610d5a919061127e565b610d985760405162461bcd60e51b815260206004820152600f60248201526e151c985b9cd9995c8819985a5b1959608a1b604482015260640161041b565b335f908152600b602052604090205460ff16610e0857600a805460018181019092557fc65a7bb8d6351c1cf70c95a316cc6a92839c986682d98bc35f958f4883f9d2a80180546001600160a01b031916339081179091555f908152600b60205260409020805460ff191690911790555b335f9081526007602052604081208054839290610e26908490611254565b925050819055508060065f828254610e3e9190611254565b909155505060405181815233907f9e71bc8eea02a63969f509818f2dafb9254532904319f9dbda79b67bd34a5f3d90602001610763565b5f6006545f03610e86575060055490565b600654600254600454610e97610c07565b610ea1919061120b565b610eab919061121e565b610ebd90670de0b6b3a764000061121e565b610ec79190611235565b600554610c1a9190611254565b335f90815260076020526040902054610eec906105a0565b610ef461076e565b565b5f546001600160a01b03163314610f4f5760405162461bcd60e51b815260206004820181905260248201527f4f776e61626c653a2063616c6c6572206973206e6f7420746865206f776e6572604482015260640161041b565b6001600160a01b038116610fb05760405162461bcd60e51b815260206004820152602260248201527f4f776e61626c653a206e6577206f776e6572206973207a65726f206164647265604482015261737360f01b606482015260840161041b565b5f80546040516001600160a01b03808516939216917f8be0079c531659141344cd1fd0a4f28419497f9722a3daafe3b4186f6b6457e091a35f80546001600160a01b0319166001600160a01b0392909216919091179055565b600a8181548110611018575f80fd5b5f918252602090912001546001600160a01b0316905081565b611039610e75565b600555611044610c07565b6004556001600160a01b038116156108875761105f8161034b565b6001600160a01b0382165f9081526009602090815260408083209390935560055460089091529190205550565b5f6020828403121561109c575f80fd5b81356001600160a01b03811681146110b2575f80fd5b9392505050565b5f80604083850312156110ca575f80fd5b50508035926020909101359150565b5f602082840312156110e9575f80fd5b5035919050565b5f8151808452602080850194508084015f5b8381101561111e57815187529582019590820190600101611102565b509495945050505050565b5f8151808452602080850194508084015f5b8381101561111e57815115158752958201959082019060010161113b565b60a080825286519082018190525f9060209060c0840190828a01845b8281101561119a5781516001600160a01b031684529284019290840190600101611175565b505050838103828501526111ae81896110f0565b91505082810360408401526111c381876110f0565b905082810360608401526111d781866110f0565b905082810360808401526111eb8185611129565b98975050505050505050565b634e487b7160e01b5f52601160045260245ffd5b818103818111156103c0576103c06111f7565b80820281158282048414176103c0576103c06111f7565b5f8261124f57634e487b7160e01b5f52601260045260245ffd5b500490565b808201808211156103c0576103c06111f7565b5f60208284031215611277575f80fd5b5051919050565b5f6020828403121561128e575f80fd5b815180151581146110b2575f80fd5b634e487b7160e01b5f52603260045260245ffd5b5f600182016112c2576112c26111f7565b5060010190565b634e487b7160e01b5f52604160045260245ffdfea2646970667358221220dc7474b376c24f39eec62dcf1cabe394a026817b3dde26b2275c2a29dee3f35864736f6c63430008140033",
  "immutableReferences": {},
  "source": "// SPDX-License-Identifier: MIT\r\npragma solidity ^0.8.0;\r\n\r\ninterface IWorkLobERC20 {\r\n    function totalSupply() external view returns (uint256);\r\n    function balanceOf(address account) external view returns (uint256);\r\n    function transfer(address recipient, uint256 amount) external returns (bool);\r\n    function allowance(address owner, address spender) external view returns (uint256);\r\n    function approve(address spender, uint256 amount) external returns (bool);\r\n    function transferFrom(\r\n        address sender,\r\n        address recipient,\r\n        uint256 amount\r\n    ) external returns (bool);\r\n}\r\n\r\ncontract Ownable {\r\n    address public owner;\r\n    \r\n    event OwnershipTransferred(address indexed previousOwner, address indexed newOwner);\r\n    \r\n    constructor() {\r\n        owner = msg.sender;\r\n    }\r\n    \r\n    modifier onlyOwner() {\r\n        require(msg.sender == owner, \"Ownable: caller is not the owner\");\r\n        _;\r\n    }\r\n    \r\n    function transferOwnership(address newOwner) public onlyOwner {\r\n        require(newOwner != address(0), \"Ownable: new owner is zero address\");\r\n        emit OwnershipTransferred(owner, newOwner);\r\n        owner = newOwner;\r\n    }\r\n}\r\n\r\ncontract WorkLobStaking is Ownable {\r\n    IWorkLobERC20 public token;\r\n\r\n    uint256 public rewardRate;\r\n    uint256 public periodFinish;\r\n    uint256 public lastUpdateTime;\r\n    uint256 public rewardPerTokenStored;\r\n\r\n    uint256 public totalStaked;\r\n\r\n    mapping(address => uint256) public balances;\r\n    mapping(address => uint256) public userRewardPerTokenPaid;\r\n    mapping(address => uint256) public rewards;\r\n    \r\n    address[] public stakers;\r\n    mapping(address => bool) public hasStaked;\r\n\r\n    event Staked(address indexed user, uint256 amount);\r\n    event Withdrawn(address indexed user, uint256 amount);\r\n    event RewardPaid(address indexed user, uint256 reward);\r\n    event RewardAdded(uint256 rewardAmount, uint256 duration);\r\n\r\n    constructor(IWorkLobERC20 _token) {\r\n        token = _token;\r\n    }\r\n\r\n    function lastTimeRewardApplicable() public view returns (uint256) {\r\n        return block.timestamp < periodFinish ? block.timestamp : periodFinish;\r\n    }\r\n\r\n    function rewardPerToken() public view returns (uint256) {\r\n        if (totalStaked == 0) {\r\n            return rewardPerTokenStored;\r\n        }\r\n        return rewardPerTokenStored + (((lastTimeRewardApplicable() - lastUpdateTime) * rewardRate * 1e18) / totalStaked);\r\n    }\r\n\r\n    function earned(address account) public view returns (uint256) {\r\n        return ((balances[account] * (rewardPerToken() - userRewardPerTokenPaid[account])) / 1e18) + rewards[account];\r\n    }\r\n\r\n    function updateReward(address account) internal {\r\n        rewardPerTokenStored = rewardPerToken();\r\n        lastUpdateTime = lastTimeRewardApplicable();\r\n        if (account != address(0)) {\r\n            rewards[account] = earned(account);\r\n            userRewardPerTokenPaid[account] = rewardPerTokenStored;\r\n        }\r\n    }\r\n\r\n    function stake(uint256 amount) external {\r\n        require(amount > 0, \"Cannot stake 0\");\r\n        updateReward(msg.sender);\r\n        require(token.transferFrom(msg.sender, address(this), amount), \"Transfer failed\");\r\n\r\n        if (!hasStaked[msg.sender]) {\r\n            stakers.push(msg.sender);\r\n            hasStaked[msg.sender] = true;\r\n        }\r\n\r\n        balances[msg.sender] += amount;\r\n        totalStaked += amount;\r\n        emit Staked(msg.sender, amount);\r\n    }\r\n\r\n    function withdraw(uint256 amount) public {\r\n        require(amount > 0, \"Cannot withdraw 0\");\r\n        require(balances[msg.sender] >= amount, \"Insufficient staked balance\");\r\n        updateReward(msg.sender);\r\n        balances[msg.sender] -= amount;\r\n        totalStaked -= amount;\r\n        require(token.transfer(msg.sender, amount), \"Transfer failed\");\r\n        emit Withdrawn(msg.sender, amount);\r\n    }\r\n\r\n    function getReward() public {\r\n        updateReward(msg.sender);\r\n        uint256 reward = rewards[msg.sender];\r\n        if (reward > 0) {\r\n            rewards[msg.sender] = 0;\r\n            require(token.transfer(msg.sender, reward), \"Reward transfer failed\");\r\n            emit RewardPaid(msg.sender, reward);\r\n        }\r\n    }\r\n\r\n    function exit() external {\r\n        withdraw(balances[msg.sender]);\r\n        getReward();\r\n    }\r\n\r\n    function getAllStakers() public view returns (address[] memory, uint256[] memory, uint256[] memory, uint256[] memory, bool[] memory) {\r\n        uint256 stakerCount = 0;\r\n\r\n        for (uint256 i = 0; i < stakers.length; i++) {\r\n            if (balances[stakers[i]] > 0) {\r\n                stakerCount++;\r\n            }\r\n        }\r\n\r\n        address[] memory stakerAddresses = new address[](stakerCount);\r\n        uint256[] memory stakedAmounts = new uint256[](stakerCount);\r\n        uint256[] memory rewardsEarned = new uint256[](stakerCount);\r\n        uint256[] memory durations = new uint256[](stakerCount);\r\n        bool[] memory statuses = new bool[](stakerCount);\r\n\r\n        uint256 index = 0;\r\n        for (uint256 i = 0; i < stakers.length; i++) {\r\n            address staker = stakers[i];\r\n            if (balances[staker] > 0) {\r\n                stakerAddresses[index] = staker;\r\n                stakedAmounts[index] = balances[staker];\r\n                rewardsEarned[index] = earned(staker);\r\n                durations[index] = block.timestamp - userRewardPerTokenPaid[staker];\r\n                statuses[index] = balances[staker] > 0;\r\n                index++;\r\n            }\r\n        }\r\n\r\n        return (stakerAddresses, stakedAmounts, rewardsEarned, durations, statuses);\r\n    }\r\n\r\n    function getStakerDetails(address account) public view returns (address, uint256, uint256, uint256, bool) {\r\n        return (\r\n            account,\r\n            balances[account],\r\n            earned(account),\r\n            block.timestamp - userRewardPerTokenPaid[account],\r\n            balances[account] > 0\r\n        );\r\n    }\r\n\r\n    function notifyRewardAmount(uint256 rewardAmount, uint256 duration) external onlyOwner {\r\n        updateReward(address(0));\r\n\r\n        if (block.timestamp >= periodFinish) {\r\n            rewardRate = rewardAmount / duration;\r\n        } else {\r\n            uint256 remaining = periodFinish - block.timestamp;\r\n            uint256 leftover = remaining * rewardRate;\r\n            rewardRate = (rewardAmount + leftover) / duration;\r\n        }\r\n\r\n        uint256 availableBalance = token.balanceOf(address(this));\r\n        require(rewardRate * duration <= availableBalance, \"Not enough tokens for reward\");\r\n\r\n        lastUpdateTime = block.timestamp;\r\n        periodFinish = block.timestamp + duration;\r\n        emit RewardAdded(rewardAmount, duration);\r\n    }\r\n}\r\n",
  "sourcePath": "C:\\Users\\John PC\\Desktop\\startups\\worklob\\smart-contract\\contracts\\WorkLobStaking.sol",
  "compiler": {
    "name": "solc",
    "version": "0.8.20+commit.a1b79de6.Emscripten.clang"
  },
  "schemaVersion": "3.4.16",
  "updatedAt": "2025-02-22T23:39:09.488Z",
  "networkType": "ethereum",
  "devdoc": {
    "kind": "dev",
    "methods": {},
    "version": 1
  },
  "userdoc": {
    "kind": "user",
    "methods": {},
    "version": 1
  }
}