{
  "contractName": "WorkLOB",
  "abi": [
    {
      "inputs": [
        {
          "internalType": "address",
          "name": "_LOBToken",
          "type": "address"
        }
      ],
      "stateMutability": "nonpayable",
      "type": "constructor"
    },
    {
      "inputs": [],
      "name": "LOBToken",
      "outputs": [
        {
          "internalType": "address",
          "name": "",
          "type": "address"
        }
      ],
      "stateMutability": "view",
      "type": "function",
      "constant": true
    },
    {
      "inputs": [
        {
          "internalType": "string",
          "name": "",
          "type": "string"
        }
      ],
      "name": "jobs",
      "outputs": [
        {
          "internalType": "string",
          "name": "jobId",
          "type": "string"
        },
        {
          "internalType": "string",
          "name": "customerId",
          "type": "string"
        },
        {
          "internalType": "string",
          "name": "talentId",
          "type": "string"
        },
        {
          "internalType": "address",
          "name": "customerWallet",
          "type": "address"
        },
        {
          "internalType": "address",
          "name": "talentWallet",
          "type": "address"
        },
        {
          "internalType": "uint256",
          "name": "amount",
          "type": "uint256"
        },
        {
          "internalType": "uint256",
          "name": "status",
          "type": "uint256"
        },
        {
          "internalType": "string",
          "name": "chatId",
          "type": "string"
        }
      ],
      "stateMutability": "view",
      "type": "function",
      "constant": true
    },
    {
      "inputs": [],
      "name": "owner",
      "outputs": [
        {
          "internalType": "address",
          "name": "",
          "type": "address"
        }
      ],
      "stateMutability": "view",
      "type": "function",
      "constant": true
    },
    {
      "inputs": [],
      "name": "rewardAmount",
      "outputs": [
        {
          "internalType": "uint256",
          "name": "",
          "type": "uint256"
        }
      ],
      "stateMutability": "view",
      "type": "function",
      "constant": true
    },
    {
      "inputs": [
        {
          "internalType": "string",
          "name": "_jobId",
          "type": "string"
        },
        {
          "internalType": "string",
          "name": "_customerId",
          "type": "string"
        },
        {
          "internalType": "string",
          "name": "_talentId",
          "type": "string"
        },
        {
          "internalType": "address",
          "name": "_customerWallet",
          "type": "address"
        },
        {
          "internalType": "uint256",
          "name": "_amount",
          "type": "uint256"
        },
        {
          "internalType": "string",
          "name": "_chatId",
          "type": "string"
        }
      ],
      "name": "deposit",
      "outputs": [],
      "stateMutability": "payable",
      "type": "function",
      "payable": true
    },
    {
      "inputs": [
        {
          "internalType": "string",
          "name": "_jobId",
          "type": "string"
        },
        {
          "internalType": "string",
          "name": "_customerId",
          "type": "string"
        },
        {
          "internalType": "string",
          "name": "_talentId",
          "type": "string"
        },
        {
          "internalType": "address",
          "name": "_talentWallet",
          "type": "address"
        },
        {
          "internalType": "string",
          "name": "_chatId",
          "type": "string"
        }
      ],
      "name": "complete",
      "outputs": [],
      "stateMutability": "nonpayable",
      "type": "function"
    },
    {
      "inputs": [
        {
          "internalType": "string",
          "name": "_jobId",
          "type": "string"
        },
        {
          "internalType": "string",
          "name": "_customerId",
          "type": "string"
        },
        {
          "internalType": "string",
          "name": "_talentId",
          "type": "string"
        },
        {
          "internalType": "address",
          "name": "_customerWallet",
          "type": "address"
        },
        {
          "internalType": "string",
          "name": "_chatId",
          "type": "string"
        }
      ],
      "name": "confirm",
      "outputs": [],
      "stateMutability": "nonpayable",
      "type": "function"
    }
  ],
  "bytecode": "0x60806040526101f4600355348015610015575f80fd5b50604051610f9b380380610f9b83398101604081905261003491610062565b600180546001600160a01b039092166001600160a01b0319928316179055600280549091163317905561008f565b5f60208284031215610072575f80fd5b81516001600160a01b0381168114610088575f80fd5b9392505050565b610eff8061009c5f395ff3fe60806040526004361061006e575f3560e01c80638da5cb5b1161004c5780638da5cb5b146100e2578063b05e6f5a14610101578063e713231d14610134578063f7b2a7be14610153575f80fd5b806311a47483146100725780633f24e1401461008757806352db0243146100c3575b5f80fd5b6100856100803660046109f3565b610176565b005b348015610092575f80fd5b506001546100a6906001600160a01b031681565b6040516001600160a01b0390911681526020015b60405180910390f35b3480156100ce575f80fd5b506100856100dd366004610ab1565b61024a565b3480156100ed575f80fd5b506002546100a6906001600160a01b031681565b34801561010c575f80fd5b5061012061011b366004610b67565b610581565b6040516100ba989796959493929190610bee565b34801561013f575f80fd5b5061008561014e366004610ab1565b6107f5565b34801561015e575f80fd5b5061016860035481565b6040519081526020016100ba565b8134146101bc5760405162461bcd60e51b815260206004820152600f60248201526e082dadeeadce840dad2e6dac2e8c6d608b1b60448201526064015b60405180910390fd5b5f80876040516101cc9190610c71565b9081526040519081900360200190209050806101e88882610d12565b50600181016101f78782610d12565b50600281016102068682610d12565b506003810180546001600160a01b0319166001600160a01b03861617905560058101839055600781016102398382610d12565b506001600690910155505050505050565b5f808660405161025a9190610c71565b908152602001604051809103902090508480519060200120816001016040516102839190610dce565b60405180910390201480156102b55750835160208501206040516102ab906002840190610dce565b6040518091039020145b6103015760405162461bcd60e51b815260206004820152601d60248201527f496e76616c696420637573746f6d6572206f722074616c656e7420494400000060448201526064016101b3565b80600601546002146103555760405162461bcd60e51b815260206004820152601860248201527f4a6f62206973206e6f7420636f6d706c6574656420796574000000000000000060448201526064016101b3565b6003810180546001600160a01b0319166001600160a01b038516179055600781016103808382610d12565b506003600682015560048101546001600160a01b0316806103db5760405162461bcd60e51b815260206004820152601560248201527415185b195b9d081dd85b1b195d081b9bdd081cd95d605a1b60448201526064016101b3565b5f60648360050154605f6103ef9190610e54565b6103f99190610e71565b90505f81846005015461040c9190610e90565b6040519091506001600160a01b0384169083156108fc029084905f818181858888f19350505050158015610442573d5f803e3d5ffd5b506002546040516001600160a01b039091169082156108fc029083905f818181858888f1935050505015801561047a573d5f803e3d5ffd5b50600154600385810154905460405163a9059cbb60e01b81526001600160a01b039283166004820152602481019190915291169063a9059cbb906044016020604051808303815f875af11580156104d3573d5f803e3d5ffd5b505050506040513d601f19601f820116820180604052508101906104f79190610ea3565b5060015460048581015460035460405163a9059cbb60e01b81526001600160a01b039283169381019390935260248301529091169063a9059cbb906044016020604051808303815f875af1158015610551573d5f803e3d5ffd5b505050506040513d601f19601f820116820180604052508101906105759190610ea3565b50505050505050505050565b80516020818301810180515f825292820191909301209152805481906105a690610c8c565b80601f01602080910402602001604051908101604052809291908181526020018280546105d290610c8c565b801561061d5780601f106105f45761010080835404028352916020019161061d565b820191905f5260205f20905b81548152906001019060200180831161060057829003601f168201915b50505050509080600101805461063290610c8c565b80601f016020809104026020016040519081016040528092919081815260200182805461065e90610c8c565b80156106a95780601f10610680576101008083540402835291602001916106a9565b820191905f5260205f20905b81548152906001019060200180831161068c57829003601f168201915b5050505050908060020180546106be90610c8c565b80601f01602080910402602001604051908101604052809291908181526020018280546106ea90610c8c565b80156107355780601f1061070c57610100808354040283529160200191610735565b820191905f5260205f20905b81548152906001019060200180831161071857829003601f168201915b505050600384015460048501546005860154600687015460078801805497986001600160a01b0395861698949095169650919450929161077490610c8c565b80601f01602080910402602001604051908101604052809291908181526020018280546107a090610c8c565b80156107eb5780601f106107c2576101008083540402835291602001916107eb565b820191905f5260205f20905b8154815290600101906020018083116107ce57829003601f168201915b5050505050905088565b5f80866040516108059190610c71565b9081526020016040518091039020905084805190602001208160010160405161082e9190610dce565b6040518091039020148015610860575083516020850120604051610856906002840190610dce565b6040518091039020145b6108ac5760405162461bcd60e51b815260206004820152601d60248201527f496e76616c696420637573746f6d6572206f722074616c656e7420494400000060448201526064016101b3565b80600601546001146109005760405162461bcd60e51b815260206004820152601860248201527f4a6f62206973206e6f74206465706f736974656420796574000000000000000060448201526064016101b3565b6004810180546001600160a01b0319166001600160a01b0385161790556007810161092b8382610d12565b5060026006909101555050505050565b634e487b7160e01b5f52604160045260245ffd5b5f82601f83011261095e575f80fd5b813567ffffffffffffffff808211156109795761097961093b565b604051601f8301601f19908116603f011681019082821181831017156109a1576109a161093b565b816040528381528660208588010111156109b9575f80fd5b836020870160208301375f602085830101528094505050505092915050565b80356001600160a01b03811681146109ee575f80fd5b919050565b5f805f805f8060c08789031215610a08575f80fd5b863567ffffffffffffffff80821115610a1f575f80fd5b610a2b8a838b0161094f565b97506020890135915080821115610a40575f80fd5b610a4c8a838b0161094f565b96506040890135915080821115610a61575f80fd5b610a6d8a838b0161094f565b9550610a7b60608a016109d8565b94506080890135935060a0890135915080821115610a97575f80fd5b50610aa489828a0161094f565b9150509295509295509295565b5f805f805f60a08688031215610ac5575f80fd5b853567ffffffffffffffff80821115610adc575f80fd5b610ae889838a0161094f565b96506020880135915080821115610afd575f80fd5b610b0989838a0161094f565b95506040880135915080821115610b1e575f80fd5b610b2a89838a0161094f565b9450610b38606089016109d8565b93506080880135915080821115610b4d575f80fd5b50610b5a8882890161094f565b9150509295509295909350565b5f60208284031215610b77575f80fd5b813567ffffffffffffffff811115610b8d575f80fd5b610b998482850161094f565b949350505050565b5f5b83811015610bbb578181015183820152602001610ba3565b50505f910152565b5f8151808452610bda816020860160208601610ba1565b601f01601f19169290920160200192915050565b5f610100808352610c018184018c610bc3565b90508281036020840152610c15818b610bc3565b90508281036040840152610c29818a610bc3565b6001600160a01b0389811660608601528816608085015260a0840187905260c0840186905283810360e08501529050610c628185610bc3565b9b9a5050505050505050505050565b5f8251610c82818460208701610ba1565b9190910192915050565b600181811c90821680610ca057607f821691505b602082108103610cbe57634e487b7160e01b5f52602260045260245ffd5b50919050565b601f821115610d0d575f81815260208120601f850160051c81016020861015610cea5750805b601f850160051c820191505b81811015610d0957828155600101610cf6565b5050505b505050565b815167ffffffffffffffff811115610d2c57610d2c61093b565b610d4081610d3a8454610c8c565b84610cc4565b602080601f831160018114610d73575f8415610d5c5750858301515b5f19600386901b1c1916600185901b178555610d09565b5f85815260208120601f198616915b82811015610da157888601518255948401946001909101908401610d82565b5085821015610dbe57878501515f19600388901b60f8161c191681555b5050505050600190811b01905550565b5f808354610ddb81610c8c565b60018281168015610df35760018114610e0857610e34565b60ff1984168752821515830287019450610e34565b875f526020805f205f5b85811015610e2b5781548a820152908401908201610e12565b50505082870194505b50929695505050505050565b634e487b7160e01b5f52601160045260245ffd5b8082028115828204841417610e6b57610e6b610e40565b92915050565b5f82610e8b57634e487b7160e01b5f52601260045260245ffd5b500490565b81810381811115610e6b57610e6b610e40565b5f60208284031215610eb3575f80fd5b81518015158114610ec2575f80fd5b939250505056fea2646970667358221220f0a1602cdb1c4cd66f9973b19c503bd6c8c93eb0ecf1826bd4bb7c6a9c5698cf64736f6c63430008140033",
  "immutableReferences": {},
  "source": "// SPDX-License-Identifier: MIT\r\npragma solidity ^0.8.0;\r\n\r\ncontract WorkLOB {\r\n    struct Job {\r\n        string jobId;\r\n        string customerId;\r\n        string talentId;\r\n        address customerWallet;\r\n        address talentWallet;\r\n        uint256 amount;\r\n        uint256 status; // 0: Not started, 1: Deposited, 2: Completed, 3: Confirmed\r\n        string chatId;  // Updated to string\r\n    }\r\n\r\n    mapping(string => Job) public jobs; // Updated to use string as the key\r\n    address public LOBToken;\r\n    address public owner;\r\n    uint256 public rewardAmount = 500; // Reward amount of LOB tokens\r\n\r\n    constructor(address _LOBToken) {\r\n        LOBToken = _LOBToken;\r\n        owner = msg.sender;\r\n    }\r\n\r\n    modifier onlyOwner() {\r\n        require(msg.sender == owner, \"Only owner can call this function\");\r\n        _;\r\n    }\r\n\r\n    function deposit(\r\n        string memory _jobId,\r\n        string memory _customerId,\r\n        string memory _talentId,\r\n        address _customerWallet,\r\n        uint256 _amount,\r\n        string memory _chatId  // Updated to string\r\n    ) public payable {\r\n        require(msg.value == _amount, \"Amount mismatch\");\r\n        Job storage job = jobs[_jobId];\r\n        job.jobId = _jobId;\r\n        job.customerId = _customerId;\r\n        job.talentId = _talentId;\r\n        job.customerWallet = _customerWallet;\r\n        job.amount = _amount;\r\n        job.chatId = _chatId;  // Updated to string\r\n        job.status = 1;\r\n    }\r\n\r\n    function complete(\r\n        string memory _jobId,\r\n        string memory _customerId,\r\n        string memory _talentId,\r\n        address _talentWallet,\r\n        string memory _chatId  // Updated to string\r\n    ) public {\r\n        Job storage job = jobs[_jobId];\r\n        require(\r\n            keccak256(bytes(job.customerId)) == keccak256(bytes(_customerId)) &&\r\n                keccak256(bytes(job.talentId)) == keccak256(bytes(_talentId)),\r\n            \"Invalid customer or talent ID\"\r\n        );\r\n        require(job.status == 1, \"Job is not deposited yet\");\r\n        job.talentWallet = _talentWallet;\r\n        job.chatId = _chatId;  // Updated to string\r\n        job.status = 2;\r\n    }\r\n\r\n    function confirm(\r\n        string memory _jobId,\r\n        string memory _customerId,\r\n        string memory _talentId,\r\n        address _customerWallet,\r\n        string memory _chatId  // Updated to string\r\n    ) public {\r\n        Job storage job = jobs[_jobId];\r\n        require(\r\n            keccak256(bytes(job.customerId)) == keccak256(bytes(_customerId)) &&\r\n                keccak256(bytes(job.talentId)) == keccak256(bytes(_talentId)),\r\n            \"Invalid customer or talent ID\"\r\n        );\r\n        require(job.status == 2, \"Job is not completed yet\");\r\n\r\n        job.customerWallet = _customerWallet;\r\n        job.chatId = _chatId;  // Updated to string\r\n        job.status = 3;\r\n\r\n        address talentWallet = job.talentWallet;\r\n        require(talentWallet != address(0), \"Talent wallet not set\");\r\n\r\n        uint256 amountToTalent = (job.amount * 95) / 100;\r\n        uint256 remainingAmount = job.amount - amountToTalent;\r\n\r\n        payable(talentWallet).transfer(amountToTalent);\r\n        payable(owner).transfer(remainingAmount);\r\n\r\n        ILOBToken(LOBToken).transfer(job.customerWallet, rewardAmount);\r\n        ILOBToken(LOBToken).transfer(job.talentWallet, rewardAmount);\r\n    }\r\n}\r\n\r\ninterface ILOBToken {\r\n    function transfer(address recipient, uint256 amount) external returns (bool);\r\n}\r\n",
  "sourcePath": "C:\\Users\\John PC\\Desktop\\startups\\worklob\\smart-contract\\contracts\\JobContract.sol",
  "compiler": {
    "name": "solc",
    "version": "0.8.20+commit.a1b79de6.Emscripten.clang"
  },
  "schemaVersion": "3.4.16",
  "updatedAt": "2025-02-26T12:57:13.138Z",
  "networkType": "ethereum",
  "devdoc": {
    "kind": "dev",
    "methods": {},
    "version": 1
  },
  "userdoc": {
    "kind": "user",
    "methods": {},
    "version": 1
  }
}